:020000040800F2
:10000000700B002001010008013E00082D3000089F
:10001000C13D0008A10B00085D470008000000007A
:10002000000000000000000000000000B9410008CE
:10003000A30B0008000000008341000839420008BB
:100040001B0100081B0100081B0100081B01000820
:100050001B0100081B0100081B0100081B01000810
:100060001B0100081B0100081B0100081B01000800
:100070001B0100081B0100081B0100081B010008F0
:100080001B0100081B010008C10A00081B01000831
:100090001B0100081B0100081B010008A50B00083C
:1000A0001B0100081B0100081B0100081B010008C0
:1000B0001B010008B94200081B0100081B010008D1
:1000C0001B0100081B0100081B0100081B010008A0
:1000D0001B01000845470008514700081B010008A4
:1000E0001B0100081B0100081B010008DFF80CD0F1
:1000F00000F082FC0048004761660008700B002099
:100100000648804706480047FEE7FEE7FEE7FEE7B1
:10011000FEE7FEE7FEE7FEE7FEE7FEE7B542000882
:10012000ED0000082DE9F0410024061B254671F181
:10013000000605DA01240027D0EB070067EB010178
:10014000161E73F1000605DA0027D2EB070201251F
:1001500067EB030300F022FB86460E4617469C46DB
:10016000AC4204D00025D0EB050E65EB010624B1AE
:100170000020D2EB000760EB030C704631463A4694
:100180006346BDE8F081202A04DB203A21FA02F020
:100190000021704721FA02F3D040C2F120029140C1
:1001A000084319467047D2B201E000F8012B491EFE
:1001B000FBD270470022F6E710B513460A46044604
:1001C0001946FFF7F0FF204610BD30B50446002069
:1001D000034600E05B1C934203D2E05CCD5C401B15
:1001E000F8D030BDF0B480EA0102D40F4200B2EB87
:1001F000410F02D20246084611464A0042D0C30DC2
:10020000DDB2C1F3C752AD1A202D35DAC1F31601A4
:1002100041F4000204B15242C5F1200602FA06F18F
:100220002A411044B3EBD05F23D0C4B1012DA0EB21
:10023000C35009DCF0BC4FF0004202EAC352DBB20B
:1002400000F5000000F005BB400000F1807000EBFD
:10025000C350A0F1807040EAD170490009E049081C
:1002600041EAC071A0EBC35000F50000400800EB6C
:10027000C350F0BC00F0E4BA6142012202EB41013C
:10028000001BF6E7F0BC704781F00041AAE780F060
:100290000040A7E780EA010210B502F000434000E9
:1002A00022D04A001FD0010E01EB1261C0F35600AC
:1002B000C2F3560240F4000042F40002A0FB022008
:1002C00000047F39140400D0401C50EA124001D4CD
:1002D0004000491EC2B20C0604EBD010401C40087E
:1002E000802A02D003E0002010BD20F00100002988
:1002F00000DA0020184310BD30B480EA010202F099
:10030000004530F0004221F0004013D090B1C30D01
:10031000D40DC2F31601C0F31600E41A41F4000133
:1003200040F400027D34914201D3641C00E0490096
:10033000002C02DA30BC002070474FF4000000238C
:10034000914201D3891A034340084FEA4101F7D192
:1003500051B1914202D14FF0004105E002D24FF07D
:10036000010101E06FF0010103EBC450284430BCEF
:1003700000F066BA420005D0C0F3C7525242914223
:1003800001DC0020704700EBC15070472DE9FE4FA3
:10039000804681EA0300C00F0C46009021F0004126
:1003A00023F00045B8EB0200A94105D240462146A2
:1003B00090461C460B46024623F00040104347D0AF
:1003C000270DC7F30A00C3F30A510290401A0190A7
:1003D00040286BDAC3F3130040F4801B0098924668
:1003E00020B10023D2EB030A63EB0B0B01985946B3
:1003F000C0F14002504600F002FA06460D46504653
:100400005946019A00F00AFA10EB080061410024F5
:1004100087EA115284EAE7731A4340D0009A62B324
:10042000019A012A4FEA075215DC001B61EB020119
:100430004FF0004202EA0752CDE90042001C41F5AC
:10044000801132462B4600F041FA03B0BDE8F08F30
:1004500040462146F9E7001B61EB0201001C41F513
:10046000801300185B412018A2F5001747EB030129
:1004700040EAD570B6196D4111E06D084FEA3606B5
:1004800045EAC0754FEA0752001B61EB0201001CF0
:1004900041F5801149084FEA3000001951413246B8
:1004A0002B4603B0BDE8F04F00F001BA00980122DE
:1004B00040000023D0EB020263EBE073009821467A
:1004C0004FEAE074B8EB000061EB0401E9E783F068
:1004D00000435BE781F0004158E72DE9FE4F81EAD8
:1004E000030404F0004421F0004100944FF0000B9D
:1004F00023F0004350EA01045ED052EA03045BD0CB
:10050000C3F30A54C1F30A552C44A4F2F334019402
:10051000A0FB0254C1F3130141F48011C3F3130390
:1005200043F4801301FB024400FB034E840A970A44
:1005300044EA815447EA8357A4FB076802958D0A71
:1005400005FB07854FEA932C04FB0C542705029DFD
:100550004FEA065847EA1637B5EB08056EEB070C6D
:10056000870E920E47EA811742EA8312A7FB020127
:10057000B6EB0B0164EB00042B0D43EA0C335E1861
:1005800044EB1C50DA465146E7FB0201C5F3130465
:100590004FEA0B3343EA14534FEA0432019C43EA17
:1005A0000603A4F10C040294009CCDE900B400F011
:1005B0008DF903B0BDE8F08F00200146F9E72DE981
:1005C000F04D81EA030404F0004B21F0004514468D
:1005D0004FF0000A23F0004150EA050220D054EA0F
:1005E00001021DD0C5F30A570246C5F31303C1F338
:1005F0001300C1F30A5640F4801543F48013A7EBAF
:100600000608101BD64608F2FD3873EB050002D32E
:1006100008F1010801E092185B41B8F1000F03DA1C
:1006200000200146BDE8F08D00204FF48011064601
:1006300084460EE0171B73EB050705D3121B63EB13
:10064000050306434CEA010C49084FEA30009218B2
:100650005B4150EA0107EDD152EA030012D082EA71
:10066000040083EA0501084305D0101BAB4106D204
:100670000122002306E000224FF0004302E06FF069
:10068000010253101AEB06004CEB085110EB0A0064
:1006900041EB0B01BDE8F04D00F009B9C10F80EA54
:1006A000E0700844CA079623002100F0D2B89623D0
:1006B0000022114600F0CDB800F0004220F00040CA
:1006C000C10DC0F3160040F400007F2901DA0020BC
:1006D0007047962903DCC1F19601C84001E09639C4
:1006E0008840002AF4D04042704720F00040C10DFD
:1006F000C0F3160040F400007F2901DA00207047A3
:10070000962903DCC1F19601C840704796398840AC
:10071000704700F0004230F000400AD0C10D01F5F2
:100720006071C0F3160042EA0151C208400711434C
:10073000704700200146704701F0004330B421F0BB
:10074000004150EA010206D00A0DA2F56072C1F321
:100750001301002A02DC30BC00207047440F44EA39
:10076000C104C100E01830BC00EBC25000F068B812
:1007700030B50B46014600202022012409E021FA71
:1007800002F59D4205D303FA02F5491B04FA02F56E
:100790002844151EA2F10102F1DC30BD2DE9F05F05
:1007A0000546002092469B468846064681464024E0
:1007B0001BE02846414647462246FFF7E4FC5346E5
:1007C0005A46C01A914110D311461846224600F0ED
:1007D00016F82D1A67EB01084F462246012000212A
:1007E00000F00DF817EB00094E41201EA4F10104A2
:1007F000DFDC484631462A464346BDE8F09F202AC2
:1008000004DB203A00FA02F1002070479140C2F167
:10081000200320FA03F3194390407047202A06DB97
:10082000CB17203A41FA02F043EAE07306E041FABE
:1008300002F3D040C2F120029140084319467047AC
:100840000029A8BF7047401C490008BF20F00100E4
:10085000704710B4B0FA80FC00FA0CF050EA0104C2
:1008600004BF10BC704749B1CCF1200421FA04F454
:1008700011FA0CF118BF012121430843A3EB0C012D
:10088000CB1D4FEA00614FEA102042BF002010BC90
:10089000704700EBC35010440029A4BF10BC704740
:1008A000401C490008BF20F0010010BC704710B583
:1008B000141E73F1000408DA401C41F10001921883
:1008C0005B411A4301D120F0010010BD2DE9F04D2C
:1008D00092469B4611B1B1FA81F202E0B0FA80F281
:1008E00020329046FFF78BFF04460F4640EA0A008D
:1008F00041EA0B0153465A46084313D0114653EAC6
:10090000010019D0C8F140025046FFF73CFC0546F3
:100910000E46504659464246FFF771FF084305D040
:10092000012004E020463946BDE8F08D0020054353
:1009300046EAE0762C4337430A986305E40AA0EBC5
:1009400008000022FD0A44EA47540A3002D500207C
:100950000146E9E7010510196941DDE9084500197B
:100960006941BDE8F04DA2E770B521F000430343B3
:100970000CD0C1F30A550024D5EB040564EB040345
:10098000D617AD1AB34102DB0020014670BD201816
:1009900041EB025170BDC1F30A52C1F3130140F2A1
:1009A000FF3341F480119A4202DA00200146704779
:1009B00040F233439A42A2F2334202DC5242FFF742
:1009C000E2BBFFF71CBF000030B5041E71F100044C
:1009D00004DB4FF00044404264EB0101141E73F14C
:1009E000000405DB1C464FF00043524263EB040356
:1009F000994208BF904230BD064C074D06E0E068C2
:100A000040F0010394E8070098471034AC42F6D355
:100A1000FFF770FB00890008208900082DE9F04DE0
:100A200000231A461B1A8A4103DB00200146BDE859
:100A3000F08DC1F30A52C1F3130141F480154FF058
:100A4000000BD10702D100186D41521E0027044649
:100A500040F2FF11384601EB620A3E4680460246EC
:100A600000204FF48011FFF78EFBC2197141BB18B3
:100A700046EB0100B4EB030C75EB000C04D3E41A55
:100A800065EB000517460E46241908F101006D417B
:100A900080463428E3DDF91946EB0600091BA8411E
:100AA00003D24FF0FF32134601E0002213461BEB46
:100AB000070046EB0A51BDE8F04DFFF7F8BE000015
:100AC000014800F05BBA00004005002070B5044604
:100AD00000688168C943C90717D1816821F0010105
:100AE000816000F0FDFD05460AE000BF00F0F8FD62
:100AF000401B022804D920688068C043C00706D084
:100B000020688068C043C007F0D0002070BDA06A94
:100B100040F01000A062E06A40F00100E0620120B5
:100B200070BD0000F8B50026044600960068816894
:100B3000C943C9072DD0816841F001018160164881
:100B400016490068B0FBF1F000E0401E009000285C
:100B5000FBD100F0C5FD054616E000BF00F0C0FD6A
:100B6000401B022810D920688068C043C0070BD002
:100B7000A06A40F01000A062E06A40F00100E0626C
:100B800084F824600120F8BD20688068C043C00755
:100B9000E4D10020F8BD00009000002040420F008A
:100BA000FEE77047034920200A68904301D12020C6
:100BB000086070471404014072B6FEE7F8B50025DE
:100BC0000446009590F82400012808D0012084F8FC
:100BD00024002046FFF77AFF060002D053E00220EF
:100BE000F8BDA06A20F4885040F00200A062022004
:100BF00000F0A6FF26490968B1FBF0F0400000E0D4
:100C0000401E00900028FBD12046FFF78BFF206894
:100C1000816841F00801816000F062FD074608E04C
:100C200000F05EFDC01B0A2803D920688068000719
:100C300015D4206880680007F2D42068816841F0EC
:100C40000401816000F04CFD074612E000F048FD11
:100C5000C01B0A280DD920688068400709D5A06A02
:100C600020F0020040F01000A06284F8245001201F
:100C7000F8BD206880684007E8D4A06A20F0020030
:100C800040F00100A06284F824503046F8BD000016
:100C900090000020F8B50022009290F8244083686C
:100CA0001646012C1CD0012480F82440D3B14D6895
:100CB0000B691F249D4226D81F055B1BC3F103034C
:100CC0000D6803EB83039D40A7F580172F439C40DD
:100CD000036844F440159C6BAC4327439F631EE0BC
:100CE0000220F8BD4B68012B05D0826A42F0200239
:100CF0008262012213E003689C6B0D686FF3150498
:100D000044EAC5340AE05B1BC3F1030303EB83032E
:100D10009C40036844F440159C6BAC439C6303689F
:100D20009C68E443E40706D09C6847F20105AC43A5
:100D30008D692C439C604B7D012B08D18B69B3F5E9
:100D4000E04F08D0826A42F02002826201220B7DCD
:100D5000012B06D00CE003685C6844F480645C609E
:100D6000F5E74B7DA3B1826A42F020028262012244
:100D70000B68072405680A2B10D3EF680A3B03EBC6
:100D800043039C40A7438C689C402743EF600EE0E0
:100D900003685C6844F480545C60E9E72F6903EB06
:100DA00043039C40A7438C689C4027432F610B68FA
:100DB000102B01D0112B04D103689C6844F400046B
:100DC0009C604B68012B10D0022B16D0032B0368BC
:100DD0001BD01C6ACD686FF30B042C431C620B689C
:100DE000102B19D0112B17D037E003685C69CD6840
:100DF0006FF30B042C435C61F1E703689C69CD68D9
:100E00006FF30B042C439C61E9E7DC69CD686FF359
:100E10000B042C43DC61E2E7124C0368A34217D1B8
:100E20009C68240219D49C6844F400049C600968FE
:100E3000102912D10C490D4B0968B1FBF3F101EBFC
:100E40008101490000E0491E00910029FBD104E026
:100E5000816A41F020018162012280F824601046FD
:100E6000F8BD0000002401409000002040420F0027
:100E700070470000F8B50024009490F8242025461F
:100E8000012A12D0012280F824204A681F23072A51
:100E90000DD20668776B521E02EB820293409F438D
:100EA0000B6893401F43776319E00220F8BD066882
:100EB0000D2A0AD2376BD21F02EB820293409F4366
:100EC0000B6893401F43376309E0F76A0D3A02EB62
:100ED000820293409F430B6893401F43F7620A6866
:100EE000072306680A2A0AD3F7680A3A02EB420285
:100EF00093409F438B6893401F43F76008E0376936
:100F000002EB420293409F438B6893401F4337613B
:100F10000A68102A01D0112A20D1124B02689A4285
:100F200017D193681B0219D4936843F400039360AC
:100F30000968102912D10C490C4A0968B1FBF2F179
:100F400001EB8101490000E0491E00910029FBD11D
:100F500004E0816A41F020018162012480F824507C
:100F60002046F8BD002401409000002040420F00C0
:100F70007047806A70470068C06C704710B50446BF
:100F800000684168890626D50168890723D5A16ACA
:100F9000C90603D4A16A41F40071A1628168C1F35A
:100FA0004241072910D1217B71B9416821F020010C
:100FB0004160A06A20F48070A062A06AC00403D4DB
:100FC000A06A40F00100A0622046FFF7D1FF21682F
:100FD0006FF0120008602068416809062ED501688C
:100FE00049072BD5A16AC90603D4A16A41F400516F
:100FF000A1628168C1F30231072909D0416849051E
:1010000015D48168C1F34241072910D1217B71B900
:10101000416821F080014160A06A20F48050A06204
:10102000A06AC00503D4A06A40F00100A062204677
:10103000FFF71EFF21686FF00C0008602068416810
:1010400049060DD50068C0070AD0A06A40F4803078
:10105000A062204600F094F821686FF0010008605B
:1010600010BD00002DE9F0414FF0000704003D469F
:101070007ED0A06A002628B9E66284F82460204663
:1010800000F080F82046FFF721FDA16A01F0100171
:10109000014304D0A06A40F01000A06268E0A16A99
:1010A00021F4885141F00201A1626268E169237B69
:1010B0000A4347EA43010A43A1684FF48077B942E3
:1010C00008D0012906D0002194F814C0BCF1010F0A
:1010D00002D00AE03946F7E7F3B1A36A43F02003F0
:1010E000A362E36A43F00103E3622368D3F804C018
:1010F0002CF4694C4CEA010CC3F804C023689968CD
:10110000DFF870C001EA0C0111439960A168B9428F
:101110000BD0012909D00CE0DFF85CC0A3690CEB0F
:1011200043330B4343F40061DFE7218A0D05A5F546
:1011300080152168CB6A23F470032B43CB622168AE
:1011400089680E4B1940914208D1E662A16A21F0EC
:10115000020141F00101A162BDE8F081A06A20F026
:10116000020040F01000A062E06A40F00100E0627E
:101170000120F1E7FDF7E1FF00E0FFFFFE0E1FFF9A
:101180007047000000B585B00021009101910291E7
:10119000039100681249884220D11248816941F4C4
:1011A00000718161816901F400710491816941F0EC
:1011B000040181618069694600F0040004901020F8
:1011C000009003200190084800F090F90022114699
:1011D000122000F083FC122000F072FC05B000BD6C
:1011E0000024014000100240000801402DE9F843AE
:1011F00000270D460446009700F072FA80462068EA
:101200008168C90508D5A06A40F02000A06284F872
:1012100024700120BDE8F8834168C90503D4C06A81
:1012200010F4700F2AD0022000F08AFC3B490968B4
:10123000B1FBF0F62068036939490B424FEA6101BE
:101240004FEAA1121FD1C3684FEA611C13EA0C0FC9
:1012500019D103690B4225D1C068104222D1142054
:1012600023E0681C0AD02DB100F03AFAA0EB080088
:10127000A84203D920680068800725D52068006847
:101280008007EED52DE003690B4202D1C1681142FF
:1012900006D0026923490A4206D1C068084203D138
:1012A000542002E0292000E0FC204643009816E08C
:1012B000681C11D02DB100F013FAA0EB0800A84271
:1012C0000AD90098B04207D2A06A40F00400A06298
:1012D00084F8247003209DE70098401C0090B042E1
:1012E000E6D321686FF012000860A06A40F4007035
:1012F000A06220688068C0F3424007280CD1207BA0
:1013000050B9A06A20F48070A062A06AC00403D41F
:10131000A06A40F00100A06200207BE7900000205E
:10132000244992244992240070B5044690F8240080
:1013300001280DD0012084F824002046FFF7F2FB9D
:1013400002004FF0000005D084F82400104670BD64
:10135000022070BDA16A40F20123994341F48071DB
:10136000A1621F4D23681F49AB4218D10E6816F4C5
:10137000702F14D0A66A46F48016A6620E68760511
:1013800005D5A66A26F4005646F48056A662A66ADB
:10139000F6040AD5E66A26F00606E66206E0A66AC4
:1013A00026F48016A6625E68E9E7E06284F824000D
:1013B0006FF00200186020688368C3F34243072B74
:1013C00005D1A84208D1096811F4702F04D08168B2
:1013D00041F480118160B9E7816841F4A001F9E727
:1013E000002801400424014010B590F8211000228B
:1013F000022905D00421816380F82020012010BD3E
:1014000001680B6823F00E030B6001680B6823F082
:1014100001030B6090F84030C46B012101FA03F323
:10142000636080F8211080F82020104610BD000075
:1014300010B590F821100024022903D00421816303
:1014400001243DE001680A6822F00E020A6001688A
:101450000A6822F001020A601A4A0168914201D129
:10146000012121E0174A1432914201D110211BE0E1
:10147000144A2832914201D1891515E0114A3C32B3
:10148000914201D189140FE00E4A5032914202D1AB
:101490004FF4803108E00B4A6432914202D14FF49C
:1014A000801101E04FF08071064A083A5160012135
:1014B00080F82110002180F82010416B01B188478D
:1014C000204610BD0800024070B5044600F008F93F
:1014D0000546601C02D004480078044400F000F97E
:1014E000401BA042FAD370BD840000202DE9F84FC4
:1014F000DFF8B891002409F1040A0AF1040B23462D
:101500000F270BF1040EC9E00125A5402A40AA428D
:101510007DD1674ED1F804C0ACEB0608B44532D09B
:1015200014DCBCF1030F3AD009DCBCF1000F2AD067
:10153000BCF1010F1CD0BCF1020F31D11DE0BCF198
:10154000110F17D0BCF1120F2AD119E0B8F5881F7E
:1015500019D006DCB8F5803F15D0B8F5801F1FD133
:1015600011E0B8F5001F0ED0B8F5041F18D10AE03D
:10157000CB6815E0CB681B1D12E0CB6808330FE089
:10158000CB680C330CE08B682BB1012B4FF00803B8
:1015900003D0456104E0042302E0056100E000237C
:1015A000FF2A01D8064601E000F104064FEA84054F
:1015B00001D9A5F12005D6F8008007FA05FC28EA34
:1015C0000C0803FA05F548EA0508C6F800804D68DE
:1015D000ED0062D5374DAE6946F00106AE61AD69EA
:1015E00024F0030605F001050095334D06EB050CCC
:1015F000DCF80850A607360F07FA06F825EA0805B2
:10160000DFF8B880404503D14FF0000817E044E010
:10161000DFF8AC80404502D14FF001080FE0DFF861
:10162000A480404502D14FF0020808E0DFF898801E
:10163000404502D14FF0030801E04FF0040808FADA
:1016400006F848EA0508CCF808804D68D9F800602B
:10165000ED034D4601D5164300E096432E604D68DC
:10166000DAF80060AD03554601D5164300E0964315
:101670002E604D68DBF80060ED025D4601D5164333
:1016800000E096432E604D68DEF80060AD027546BE
:1016900001D5164300E096432E60641C0D682A466F
:1016A000E5407FF431AFBDE8F88F00000004014051
:1016B000000011100010024000000140000801402D
:1016C000000C0140001001400014014080680840F7
:1016D00000D0012070470AB1016170470904FBE79F
:1016E00001488068704700008400002070B5040045
:1016F00025D094F83D00002520B984F83C502046C0
:1017000000F04EF9242084F83D002068016821F0A3
:10171000010101602068016841F400410160206816
:10172000016821F40041016000F07AFB4D4A6168D4
:10173000914201D84C4900E04C49884201D2012035
:1017400070BD4B492368B0FBF1F15E6826F03F069F
:101750000E435E606368934206D94FF49673594313
:101760004FF47A73B1FBF3F12368491C1E6A26F02B
:101770003F06314319626168914210D84900401E0A
:10178000B0FBF1F2521CC2F30B02042A01D2042076
:1017900022E0B0FBF1F0401CC0F30B001CE0A2689B
:1017A000F2B301EBC10303EB0116431EB3FBF6F3E7
:1017B0005B1C43F480431B0549D092B301EBC1028B
:1017C00002EB0111401EB0FBF1F0401CC0F30B0016
:1017D00040F4804040F400402168CA694CF6FF7331
:1017E0009A431043C861D4E9071001432068026896
:1017F00022F0C00211430160D4E9030101432068D3
:10180000826848F2FF339A4311438160D4E90501AD
:1018100008432168CA6822F0FF021043C86001E053
:101820000EE016E02068016841F0010101602564C6
:10183000202084F83D00256384F83E50002070BDD0
:1018400001EB4106431EB3FBF6F35B1CB3E701203B
:10185000C2E701EB4101401EB0FBF1F0401CC0F3B8
:101860000B00B7E7A086010080841E0000093D0040
:1018700040420F002DE9F84F1F4690468A46044625
:10188000DDF82890FFF72CFF054694F83D0020284E
:101890007FD11923012240492046009501F052FCD6
:1018A000002876D194F83C00012872D0012084F8F9
:1018B0003C0020680168C90703D1016841F00101BB
:1018C00001602068016821F400610160212084F832
:1018D0003D00102084F83E0000262664C4F82480D1
:1018E0006785608D20852D48E0622B464A4651462B
:1018F000204601F0B3FB90B92068416980690090EF
:1019000036E02A464946204601F09BFC50B1206C47
:10191000042804D12068016841F4007101600120AD
:10192000BDE8F88F606A216800780861606A401C31
:101930006062618D491E6185218D491E89B22185B4
:1019400022685369DB435B070BD451B10078106107
:10195000606A401C6062608D401E6085208D401E64
:1019600020852A464946204601F0C6FB0028CED1F4
:10197000208D0028C5D154F83D0B016841F4007159
:101980000160202004F81E09E67766770020C7E78B
:10199000FFE70220C4E70000020010000000FFFF84
:1019A00010B586B000210091019102910391006869
:1019B0001349884222D1134CA06940F00800A0616D
:1019C000A069694600F0080004904FF44070009050
:1019D00012200190032003900B48FFF787FD0B486E
:1019E000416841F0E06141F002014160E06940F48A
:1019F0000010E061E06900F40010049006B010BD32
:101A00000054004000100240000C01400000014062
:101A10000248816802781144816070478400002088
:101A2000074810B5016841F010010160032000F083
:101A300075F8002000F006F800F024F8002010BD32
:101A40000020024070B50D4D04464FF47A7128789D
:101A5000B1FBF0F00A490968B1FBF0F000F0C6FBF9
:101A600048B9102C07D200222146501E00F036F84B
:101A700000206C6070BD012070BD0000840000205B
:101A8000900000200C4808B5816941F00101816196
:101A9000816901F001010091C16941F08051C1618A
:101AA000C06900F0805000900448416821F0E06176
:101AB00041F08061416008BD00100240000001401B
:101AC000002809DB00F01F0201219140400980003D
:101AD00000F1E020C0F8001170470000F0B40E4B98
:101AE0001B680C46C3F30223C3F10705042D00D97C
:101AF0000425191D072901D2002300E0DB1E012661
:101B000006FA05F1491E214099409E40761E164076
:101B10003143F0BC02F05ABE0CED00E0064900F083
:101B2000070208684FF6FF03184040EA0220034A04
:101B300010430860704700000CED00E00000FA055B
:101B400010B529A401461DCC86B08DE81D002AA041
:101B50002A4C006804900020012923D002293AD0A1
:101B600010291DD161682268D20119D5C1F38342C1
:101B7000C9031DF8020009D5616804AAC1F34041F8
:101B8000515C1F4AB2FBF1F1484301E01D49484353
:101B90006168490204D440005FF00301B0FBF1F03A
:101BA00006B010BD226AC2F30121012903D19207B8
:101BB00001D5C803F4E7022905D1626A920702D56C
:101BC00049F64040ECE70329EAD121688903E7D5CB
:101BD0004FF22440E4E700F033F96168C1F381314A
:101BE000491C4900DAE7000002030405060708095A
:101BF0000A0B0C0D0E0F1010010200000010024025
:101C000000127A0000093D002DE9F84305460078EE
:101C1000354CC00754D0E0690026C00008D4E06904
:101C200040F08050E061E069012600F080500090B3
:101C30002E480168C90512D40168804641F48071BC
:101C40000160FFF74DFD074605E000BFFFF748FDC7
:101C5000C01B642823D8D8F80000C005F6D5206A38
:101C600010F4407021D0A98801F4407181421CD049
:101C7000206A1F49012220F440700A6000220A6095
:101C80002062C00711D0FFF72BFD074641F28838CC
:101C900008E000BFFFF724FDC11B414502D9032026
:101CA000BDE8F883206A8007F4D5206A696820F4CB
:101CB0004070084320621EB1E06920F08050E0616E
:101CC0002878800705D56068A96820F4404008435B
:101CD00060602878C00605D56068E96820F4800057
:101CE000084360600020DBE7001002400070004005
:101CF000400442422DE9F0470F46050061D0434EB3
:101D0000306800F00700B84209D2306820F00700C0
:101D100038433060306800F00700B84251D128687D
:101D20003B4C810712D5400703D5606840F4E06062
:101D300060602878000703D5606840F460506060F8
:101D40006068A96820F0F000084360602878C00748
:101D500028D06868012810D02168022810D089078F
:101D600000292EDA616821F0030101436160FFF769
:101D7000B7FC804641F288390DE021688903EFE71E
:101D80008901EDE7FFF7ACFCA0EB0801494502D95A
:101D90000320BDE8F0876068696800F00C00B0EBD4
:101DA000810FEFD1306800F00700B8420BD93068DE
:101DB00020F0070038433060306800F00700B84278
:101DC00001D00120E5E72878400705D56068E9687B
:101DD00020F4E060084360602878000706D560685A
:101DE000296920F4605040EAC100606000F038F8D2
:101DF0006168084AC1F30311515CC8400649086094
:101E000006480068FFF71EFE0020C2E700200240DF
:101E100000100240A68700089000002088000020E3
:101E20000448054900684968044AC1F30221515C2D
:101E3000C84070479000002000100240B68700089C
:101E40000448054900684968044AC1F3C221515C4D
:101E5000C84070479000002000100240B68700087C
:101E600012A185B00FC98DE80F0014A0144A0068B4
:101E700004905168134801F00C03042B10D0082B78
:101E80000ED1C1F38343C9031DF803000AD551687D
:101E900004AAC1F34041515C0A4A5043B0FBF1F03F
:101EA00005B0704708494843FAE7000002030405FB
:101EB000060708090A0B0C0D0E0F10100102000096
:101EC0000010024000127A0000093D002DE9F84F91
:101ED000040070D02078C04DC00749D06868C0F3B6
:101EE0008100012807D06868C0F38100022809D169
:101EF0006868C00306D52868800339D56068002863
:101F0000E7D035E06068B0F5803F0BD010B1B0F598
:101F1000A02F11D0286820F480302860286820F491
:101F2000802002E0286840F480302860606890B12A
:101F3000FFF7D6FB06460AE0286840F480202860B8
:101F4000F0E700BFFFF7CCFB801B642873D828683C
:101F50008003F7D50CE0FFF7C3FB064605E000BFA2
:101F6000FFF7BEFB801B6428F0D828688003F7D4F5
:101F700020789A4E80074FF001094FF0000839D5BC
:101F8000686810F00C0F07D06868C0F38100022861
:101F900009D16868C00306D42868800714D5206971
:101FA000012808D110E02069B0B1C6F80090FFF711
:101FB00097FB074605E00AE1FFF792FBC01B0228EA
:101FC000C4D828688007F7D52868616920F0F80030
:101FD00040EAC10028600DE0C6F80080FFF780FBF2
:101FE000074604E0FFF77CFBC01B022823D82868C3
:101FF0008007F7D4207800072CD57948A169D9B19A
:10200000C0F80090FFF76CFB074604E0FFF768FBA1
:10201000C01B02280FD8686A8007F7D571484FF4B3
:10202000FA510068B0FBF1F0009000BF0098411E2B
:102030000091FAD20EE080E0C0F80080FFF750FB7C
:10204000074604E0FFF74CFBC01B022875D8686AFE
:102050008007F7D42078400760D5E8690027C000E2
:1020600008D4E86940F08050E861E869012700F091
:10207000805000905C480168C90513D4016883460C
:1020800041F480710160FFF72BFB824606E000BF40
:10209000FFF726FBA0EB0A0064284ED8DBF800000F
:1020A000C005F5D5E06801280AD008B1052813D08D
:1020B000286A20F001002862286A20F0040002E06B
:1020C000286A40F001002862E06841F2883B98B13C
:1020D000FFF706FB82460BE0286A40F00400286206
:1020E000EEE700BFFFF7FCFAA0EB0A0159455AD80A
:1020F000286A8007F6D50CE0FFF7F2FA824605E081
:10210000FFF7EEFAA0EB0A0159454CD8286A800780
:10211000F6D41FB1E86920F08050E861E06988B327
:102120006968C1F38101022944D00228C6F86080A1
:1021300004D0FFF7D5FA044638E034E0FFF7D0FAD0
:10214000074604E0FFF7CCFAC01B02282BD828680A
:102150008001F7D4206AB0F5803F05D16868A16896
:1021600020F4003008436860D4E908010843696836
:1021700021F4741108436860C6F86090FFF7B0FA64
:10218000044606E025E000BFFFF7AAFA001B02287C
:1021900009D828688001F7D51BE000BFFFF7A0FA37
:1021A000001B022802D90320BDE8F88F28688001AF
:1021B000F4D40EE00128F7D06868226A00F4803178
:1021C000914204D1616A00F47010884201D001206C
:1021D000EAE70020E8E70000001002400000424269
:1021E00080044242900000200070004010B5401E64
:1021F000B0F1807F01D3012010BD4FF0E024606179
:102200000F21601702F0E2FA0020A0610720206190
:10221000002010BD7047704710B590F83C20012A8F
:1022200022D0012280F83C20CA688C6822F44072D7
:1022300022434C6822F4806222430C6822F400623C
:1022400022430C6922F4805222434C6922F400524A
:102250002243C969002322F480420A4301684A6488
:1022600080F83C30002010BD022010BD70B590F801
:102270003C20012A26D0012480F83C40022280F82C
:102280003D2003685A689D6822F070060A68324350
:102290005A600D4B02689A4208D0B2F1804F05D0C7
:1022A0000A4B9A4202D00A4B9A4204D1496825F05F
:1022B00080031943916080F83D40002180F83C1074
:1022C000084670BD022070BD002C01400004004093
:1022D0000008004010B5040003D094F83D0010B190
:1022E00007E0012010BD002084F83C00204600F0EB
:1022F0001FF8022084F83D00211D206801F0E2FF54
:10230000012084F8460084F83E0084F83F0084F8F9
:10231000400084F8410084F8420084F8430084F8C7
:10232000440084F8450084F83D00002010BD000002
:1023300008B5114A01681148914208D1816941F4F8
:1023400000618161806900F40060009008BD0C4A62
:102350009142FBD1C16941F00201C161C069002213
:1023600000F00200009011461D20FFF7B7FBBDE80A
:1023700008401D20FFF7A4BB002C014000100240C4
:102380000004004090F83D10012901D00120704761
:10239000022180F83D100168CA6842F00102CA605B
:1023A00000680B49884208D0B0F1804F05D0094938
:1023B000884202D00849884204D1816801F00701AF
:1023C000062903D0016841F0010101600020704737
:1023D000002C0140000400400008004070B5044695
:1023E00090F83C00012817D0012584F83C500220C9
:1023F00084F83D002068826822F0770222F47F4250
:1024000082600868502830D00DDC20284DD005DCD3
:1024100098B310283BD148E0022070BD302844D04A
:10242000402834D139E0602828D0702806D0B0F593
:10243000805F2CD0B0F5005F29D10AE0CB68D1E9EC
:102440000121206801F081FF2068816841F0770157
:1024500009E0CB68D1E90121206801F076FF20680E
:10246000816841F48041816011E0CA684968206850
:1024700002F020F85021206807E016E0CA68496899
:10248000206802F028F86021206801F068FF84F8D5
:102490003D50002084F83C0070BDCA68496820683F
:1024A00002F008F840212068EFE722680146104654
:1024B000EBE72DE9F0410D46040003D094F83D0010
:1024C00018B108E00120BDE8F081002084F83C004C
:1024D000204600F041F8022084F83D002068816821
:1024E00044F2070291438160211D206801F0EAFE59
:1024F000226890689169166A2B68AF69034340F2BD
:102500000330814341EA0721A868EF6908434FF689
:10251000FC418843E96840EA0720014328692F6AA3
:10252000000140EA0730084369686D6926F0220619
:1025300046EA0515294393602268906154F8460BDA
:102540000162012004F81F09E0752076E07620770B
:10255000A0750020B7E7000000B585B0002100910C
:1025600001910291039101681A48B1F1804F1BD08B
:10257000194A914216D1C16941F00401C161C16992
:1025800001F004010491816941F0080181618069D1
:10259000694600F008000490C02000900F4800BF7A
:1025A000FEF7A4FF05B000BDC16941F00101C161A2
:1025B000C16901F001010491816941F00401816167
:1025C0008069694600F004000490032000900448EC
:1025D000E6E700000010024000080040000C014047
:1025E0000008014070B590F83E60044690F83F50F6
:1025F00090F8423090F84320022021B104290ED0F7
:10260000012E1BD114E0012E18D1012B16D184F814
:102610003E0084F8420001220021206820E0012DC4
:102620000CD1012A0AD184F83F0084F8430014E059
:10263000012D03D1012B01D1012A01D0012070BD50
:1026400084F83E0084F83F0084F8420084F8430098
:1026500001220021206801F06BFE01220421206884
:1026600001F066FE2068016841F001010160002070
:1026700070BD704770B50446006801694FF00005F1
:10268000C943890715D4C168C943890711D4E91E14
:10269000016101202077206880698007204602D0F0
:1026A000FFF7E7FF04E000F0BFF8204600F04EF926
:1026B000257720680169C943490717D4C168C94310
:1026C000490713D46FF004010161022020772068CC
:1026D000806910F4407F204602D0FFF7CAFF04E073
:1026E00000F0A2F8204600F031F925772068016952
:1026F000C943090716D4C168C943090712D46FF04A
:1027000008010161042020772068C0698007204605
:1027100002D0FFF7AEFF04E000F086F8204600F09C
:1027200015F9257720680169C943C90617D4C1681E
:10273000C943C90613D46FF0100101610820207746
:102740002068C06910F4407F204602D0FFF791FF57
:1027500004E000F069F8204600F0F8F825772068DA
:102760000169C943C90708D1C168C943C90704D170
:10277000891E0161204600F039F920680169C943CA
:10278000090609D4C168C943090605D46FF0800160
:1027900001612046FFF73EFD20680169C9434906F3
:1027A00009D4C168C943490605D46FF040010161ED
:1027B000204600F079F920680169C94389060BD4E5
:1027C000C168C943890607D46FF020010161204622
:1027D000BDE87040FFF71FBD70BD000000B585B0BB
:1027E0000021009101910291039100680B498842F8
:1027F00012D10B48816941F0040181618069694609
:1028000000F0040004904FF410600090022001904A
:1028100003900448FEF76AFE05B000BD002C01409D
:102820000010024000080140704770B5044690F85F
:102830003C000D4601280AD0012084F83C0042B13A
:10284000042A18D0082A2AD00C2A4DD139E00220B7
:1028500070BD206801F08CFD2068816941F008019D
:1028600081612068816921F00401816120688169AA
:102870002A69114311E0206801F0A2FD20688169F6
:1028800041F4006181612068816921F48061816186
:10289000206881692A6941EA0221816124E0206877
:1028A00001F0BAFD2068C16941F00801C1612068EA
:1028B000C16921F00401C1612068C1692A6911431D
:1028C00011E0206801F0D4FD2068C16941F4006185
:1028D000C1612068C16921F48061C1612068C1695A
:1028E0002A6941EA0221C161002084F83C0070BDE0
:1028F00010B5040003D094F83D0010B107E00120AA
:1029000010BD002084F83C00204600F01EF8022094
:1029100084F83D00211D206801F0D4FC012084F8DA
:10292000460084F83E0084F83F0084F8400084F8B4
:10293000410084F8420084F8430084F8440084F89D
:10294000450084F83D00002010BD7047704700002E
:1029500010B50446022249B104290ED0082913D02B
:1029600094F84100012816D0012010BD94F83E00D3
:102970000128F9D184F83E200FE094F83F000128A7
:10298000F2D184F83F2008E094F840000128EBD110
:1029900084F8402001E084F841200122206801F001
:1029A000C7FC0F492068884203D1426C42F40042C0
:1029B00042642068884208D0B0F1804F05D00949B0
:1029C000884202D00849884204D1816801F0070199
:1029D000062903D0016841F001010160002010BD0B
:1029E000002C0140000400400008004070B51C4964
:1029F000884233D100F052FE1A491B4A08701B4925
:102A00001B4803F0B3FE1B4A1B491C4800F064FE40
:102A10001B4A1C491C4800F078FE022001F0B2FB62
:102A20001A4940420860042001F0ACFB18490860D4
:102A30001848007804F002FE1749194C194D086037
:102A4000164909680A1A08442260286000F00AFE44
:102A500029682068BDE8704001F0B0BB70BD00007F
:102A6000540600205200002068000020640000206E
:102A700060000020700000206E0000206C0000202C
:102A800076000020740000207200002078000020F2
:102A90007C000020560000204C0000204800002050
:102AA000400000204400002070477047704700003D
:102AB000F8B5026804461068D168536910F00F0F2A
:102AC0004FF0000554D003F0010601F4907737432E
:102AD0005FD0C20705D0CA0503D5226C42F00102BF
:102AE0002264420705D5DA0703D0226C42F00202C5
:102AF0002264820705D5DA0703D0226C42F0040273
:102B00002264020707D501F02002324303D0226C71
:102B100042F008022264226C002A35D0800604D5D7
:102B2000880602D5204601F008FD20684069216C26
:102B3000C0F3801001F008010143204625D001F0C8
:102B4000E4FC2068416949061BD5416921F0400138
:102B50004161A06BA8B158494163A06BFEF768FCC6
:102B6000002811D0A06B416B01B0BDE8F0400847D0
:102B700083060ED58B060CD52046BDE8F84001F043
:102B8000DCBC2046FFF792FFF8BDFFF78FFF2564FE
:102B9000F8BD266B2023012E52D1C60650D5CE0695
:102BA0004ED5106850680090506940062AD5A16B38
:102BB000086840680004000CEAD0A68D8642E7D978
:102BC000E0858869202818D0D06820F48070D06013
:102BD0002068416921F0010141612068416921F0CB
:102BE0004001416184F83E3025632068C16821F0CE
:102BF0001001C160A06BFEF7F7FBA08DE18D401ABC
:102C000081B219E0A08DE18D401A81B2E08D0028DB
:102C1000BED00029BCD0D06820F49070D06020686D
:102C2000426922F00102426184F83E302563206847
:102C3000C26822F01002C2602046FFF736FFF8BDDE
:102C400005062BD50D0629D594F83D002128F6D18F
:102C5000A068B0F5805F01D12069B0B1206A411C45
:102C60002162216800784860E08C401E0004000C5E
:102C7000E084E4D12068C16821F08001C16020684F
:102C8000C16841F04001C160F8BD206A0088C0F30E
:102C900008005060206A801C2062E5E74006F3D5FA
:102CA0004806F1D5D168204621F04001D16084F872
:102CB0003D3000F0BAF9F8BDFB44000870B50400DF
:102CC00004D094F83D00002510B106E0012070BD4D
:102CD00084F83C50204600F023F8242084F83D007E
:102CE0002068C16821F40051C160204601F080FCD9
:102CF0002068016921F4904101612068416921F057
:102D00002A0141612068C16841F40051C160256415
:102D1000202084F83D0084F83E00002070BD0000B3
:102D200070B586B0002400940194029403942E4E52
:102D300003682E49022003222D4DB34226D18B6910
:102D400043F480438B618B6903F4804304938B6964
:102D500043F004038B618969039201F0040104913B
:102D60000102CDE9001069462846FEF7BFFB281591
:102D7000CDE90004694628460294FEF7B7FB00221D
:102D800002212520FEF7AAFE252028E0194EB34295
:102D900027D1CB6943F40033CB61CB6903F4003313
:102DA00004938B6943F004038B618969039201F0FA
:102DB000040104910421CDE9001069462846FEF77C
:102DC00095FB0820CDE90004694628460294FEF7E9
:102DD0008DFB002202212620FEF780FE2620FEF732
:102DE0006FFE06B070BD00000038014000100240C8
:102DF000000801400044004090F83E30202B0ED1E6
:102E000059B152B190F83C30012B08D0012380F821
:102E10003C300023036301F047BC012070470220CF
:102E2000704700002DE9F05F424D414FDFF808C1C7
:102E300028783B78411CCAB29CF800103F4E4FF0F6
:102E40000109002463B1012B0FD0DFF8F4A0DFF8F3
:102E5000F4B0DFF8F480022B23D0032B45D006E03A
:102E60002C2904D187F8009017E0122913D03C7068
:102E70002C70002026F81040401CC0B20A28F9D35C
:102E800032A000BF01F06CFCBDE8F05F01222A49CE
:102E90003048FFF7B1BF02233B7026F810102A70AC
:102EA000F2E726F810102A706446012222492948C8
:102EB000FFF7A2FF28780A2802D221785B2934D1B3
:102EC0000321397006EB400088F8009030F80A2D95
:102ED0004488ABF80040204C838823801F4CC08876
:102EE0002080D018AAF80000CEE706EB400030F8AA
:102EF000020C5B280AD03C702C70002026F8104091
:102F0000401CC0B20A28F9D315A0BBE798F800000E
:102F100030B1BBF80020BAF8001013A001F020FC7B
:102F200088F800402C703C70AEE7BDE8F09F0000D0
:102F30005400002053000020800000202C050020B9
:102F40005600002058000020550000206572726F66
:102F500072320000280700205A0000205C00002088
:102F60006572726F7231000063783A25642C2063B9
:102F7000793A2564000000002DE9F843044690F8F2
:102F80003D001F4616460D4620284CD1C5B1BEB1A6
:102F900094F83C00012846D0012084F83C004FF012
:102FA0000008C4F84080212084F83D00FEF798FB1B
:102FB000A6848146E684A068B0F5805F03D004E073
:102FC0000120BDE8F883206928B12E465FF0000596
:102FD00084F83C800EE00026FAE78021204601F0CC
:102FE0007EFBA0B9AEB116F8010B21684860E08CF9
:102FF000401EE084E08C4B464FF000020097002812
:10300000EBD14FF04001204601F069FB30B10320C5
:10301000D7E735F8020BC0F30800E6E7202084F874
:103020003D000020CDE70220CBE77047FEE70168B6
:103030004A69D24352050FD46FF480624A6100217D
:1030400040F8301F202242738173026942F004026B
:10305000026101730120704700207047F8B50446F3
:10306000C06A1E460D461746082807D0012805D01D
:1030700010F5803F02D0206B122804D1206801682F
:1030800041F480710160134600224FF00111204687
:10309000009600F057F840B120680068C00502D5DE
:1030A0004FF4007020640320F8BD2069B0F5804F14
:1030B0000ED00620216800EAD51040F0F00008612B
:1030C00033463A460B49204600F070F878B902E0E2
:1030D00005F0FE0000E0E8B22168086105493346CA
:1030E0003A46891F204600F061F80028DCD0012014
:1030F000F8BD00000800010070B516460D460446F4
:103100000DE02046FFF793FF08B1012070BD681C59
:1031100005D0FEF7E5FA801BA84207D835B1206834
:103120004069C0434007ECD4002070BD002044F843
:10313000300F20216173A073216941F020012161CA
:103140002073E2E72DE9F0471E4690460D460446FF
:10315000C1F30747DDF8209008E0701C06D0FEF7A9
:10316000BFFAA0EB0900B0420FD876B12068012F5A
:1031700018D0806925EA00000004000C14D000215A
:103180004145EAD00020BDE8F087002044F8300F28
:1031900020216173A073216941F020012161207316
:1031A0000120F0E74069E5E70121E9E72DE9F04773
:1031B0009A4691460E46044600254FF02008C1F37A
:1031C000074725E020684069C043400514D42068C3
:1031D000016841F40071016021686FF4806048610A
:1031E000256384F83D8084F83E50206C40F0040054
:1031F000206484F83C501FE0B9F1FF3F08D0FEF78F
:103200006FFAA0EB0A0149450CD8B9F1000F09D0BB
:103210002068012F13D0806926EA00000004000C0A
:103220000BD0CFE744F8305F84F80D80A573206998
:1032300040F02000206125730120BDE8F08740693F
:10324000EAE770B516460D4604460DE02046FFF746
:10325000EEFE08B1012070BD681C05D0FEF740FAF3
:10326000801BA84207D835B120684069C0430006DA
:10327000ECD4002070BD002044F8300F2021617391
:10328000A073216941F0200121612073E2E7000071
:1032900010B50E4C002208212046FEF71CFA00F063
:1032A00017F8012210212046FEF715FA00F010F859
:1032B000002210212046FEF70EFA00F009F8204601
:1032C0000122BDE810400821FEF705BA000C0140BC
:1032D0000020401CC0B20A28FBD370470C4800B540
:1032E000816985B041F0080181618069694600F01B
:1032F00008000490182000900320039011200190F2
:103300000448FEF7F3F800F09DF805B000BD00009A
:1033100000100240000C014010B50C4C01220821A5
:103320002046FEF7D8F9FFF7D3FF012210212046EF
:10333000FEF7D1F9FFF7CCFF002210212046FEF75F
:10334000CAF9BDE81040FFF7C3BF0000000C014000
:103350002DE9F0410024134E074625466006040E71
:10336000012210213046FEF7B6F9FFF7B1FF082120
:103370003046FEF7ABF908B1641CE4B2002210211C
:103380003046FEF7A8F9FFF7A3FF6D1CEDB2082D3C
:10339000E4D327B1FFF77CFF2046BDE8F081FFF7BB
:1033A000BBFFF9E7000C014070B5154E054600243F
:1033B000280601D5012200E0002208213046FEF750
:1033C0008AF9FFF785FF012210213046FEF783F9C5
:1033D000FFF77EFF002210213046FEF77CF9072C14
:1033E00004D1012208213046FEF775F96806050E62
:1033F000FFF76EFF641CE4B2082CD9D370BD000047
:10340000000C014010B50E4C012208212046FEF7A9
:1034100062F9012210212046FEF75DF9FFF758FFFF
:10342000002208212046FEF756F9FFF751FF00223F
:1034300010212046FEF74FF9BDE81040FFF748BFC6
:10344000000C014010B50A4C002208212046FEF76E
:1034500042F9012210212046FEF73DF9FFF738FF1F
:1034600020460122BDE810400821FEF734B90000D3
:10347000000C014070B5104D012208212846FEF7CE
:103480002AF9FFF725FF012210212846FEF723F92C
:10349000FFF71EFF08212846FEF718F908B101249E
:1034A00000E00024002210212846FEF714F9FFF75F
:1034B0000FFF204670BD0000000C0140044908B514
:1034C0008A6902438A6189690140009108BD000050
:1034D0000010024030B5264A002405790168131F08
:1034E00085B371B345798DB1012D17D0022D18D058
:1034F000012483792BB31E4908310A1F012B18D0F0
:10350000022B20D0032B22D0012428E015688D4304
:10351000156001681A680A431A60EAE71D688D435E
:1035200001E01D680D431D60016813680B431360C3
:10353000DFE703680D689D430D6000681168014373
:1035400011600CE00DE0036815689D4302E003681C
:1035500015681D43156000680A6802430A6020462A
:1035600030BD1D688D431D60006811688143E7E729
:1035700004040140F0B50A68C2F30F2595FAA5F2DC
:10358000B2FA82F369E001229A402A4264D0082B01
:1035900003D240F201129A4006E0A3F108024FF074
:1035A0000114944044F080624C68082C0BD10C69E3
:1035B000C668170A97FAA7F7B7FA87F726EA122616
:1035C000BC402643C66092FAA2F700EB1264B7FA39
:1035D00087F74FEA870C0F27266807FA0CF7BE43D8
:1035E00092FAA2F7D1F804E0B7FA87F7BF000EFA13
:1035F00007FE46EA0E0626604F68012F01D0092F0C
:103600002AD192FAA2F7B7FA87F74FEA870C032775
:1036100007FA0CF7BE4392FAA2F7B7FA87F7D1F888
:1036200008E0BF000EFA07FE92FAA2FC46EA0E0678
:10363000BCFA8CFC4FEA8C0E4FF0040C26600CFA9E
:103640000EFC92FAA2F2B2FA82F2CF68920026EA57
:103650000C0697403E4326605B1C35FA03F292D17C
:103660000020F0BD0A4A0B49136848428B4201DA38
:10367000116002E0834200DD1060074A13688B424C
:1036800001DA116070478342FCDD10607047000072
:1036900040000020A8E4FFFF4400002010B50C48C3
:1036A000FDF767FC0B4C800503D50948FDF763FC6B
:1036B000208021884FF47A60814200D920802088C0
:1036C0002821B0FBF1F0C0F16400C0B210BD0000D1
:1036D00040050020500000207CB514460D460646EB
:1036E0006B4606223B21682000F080F800280BD1B1
:1036F000BDF8001049BA3180BDF8021049BA2980DE
:10370000BDF8041049BA21807CBD7CB514460D4635
:1037100006466B4606224321682000F067F8002821
:103720000BD1BDF8001049BA3180BDF8021049BA7A
:103730002980BDF8041049BA21807CBD10B5FFF77F
:10374000CDFD80216B2000F0C0F86420FDF7BCFEA9
:1037500000216B2000F0B9F8032000F082F800206F
:1037600000F07AF8322000F099F80021382000F0BB
:10377000ACF800216A2000F0A8F80021232000F016
:10378000A4F88021372000F0A0F8752000F011F88F
:10379000682801D0012010BD01216B2000F095F8B0
:1037A00000216C2000F091F8322000F077F8002022
:1037B00010BD10B50446FFF725FED020FFF7F4FD3D
:1037C000FFF758FE2046FFF7EFFDFFF753FEFFF728
:1037D00019FED120FFF7E8FDFFF74CFE0020FFF7B0
:1037E000B7FD0446FFF72EFE204610BD2DE9F0413F
:1037F0001D4614460F460646FFF704FE7006000EEF
:10380000FFF7D2FDFFF736FE20B1FFF71BFE0120C8
:10381000BDE8F0813846FFF7C7FDFFF72BFEFFF745
:10382000F1FD012000EB4600C0B2FFF7BDFDFFF740
:1038300021FE09E0012C0DD05FF00100FFF788FDAB
:10384000641E05F8010BE4B2002CF3D1FFF7FAFD7A
:103850000020DDE70020F1E7C006010E1C2000F08B
:1038600034B8C006010E1B2000F02FB8BC2801D3CD
:10387000012110E0622801D302210CE02A2801D3A3
:10388000032108E0142801D3042104E00A2801D30D
:10389000052100E006211A2000F017B810B50446F3
:1038A0004FF47A70844201D9044602E0042C00D21D
:1038B0000424B0FBF4F0401EC1B2192000F005F85A
:1038C0006008BDE81040FFF7D1BF70B50C46054653
:1038D000FFF798FDD020FFF767FDFFF7CBFD50B94C
:1038E0002846FFF761FDFFF7C5FD2046FFF75CFDA9
:1038F000FFF7C0FD18B1FFF7A5FD012070BDFFF770
:10390000A1FD002070BD2DE9F0411E4615460F4671
:103910000446FFF777FD6006000EFFF745FDFFF751
:10392000A9FD60B93846FFF73FFDFFF7A3FD00246E
:103930000CE0305DFFF738FDFFF79CFD20B1FFF78D
:1039400081FD0120BDE8F081641CE4B2AC42F0D3FB
:10395000FFF778FD0020F5E770B58AB000240794E2
:1039600008941C2168460994FCF724FC194818495E
:103970000125846001600573047505614FF46021C1
:103980004460C161FDF76EFB08B1FDF715F9CDE9A3
:103990000854042607A90F480796FDF76BFA08B1EB
:1039A000FDF70AF9CDE900654FF4E04006908DF887
:1039B0001540049502948DF8144069460548039417
:1039C000FDF768F9002801D0FDF7F6F80AB070BDE0
:1039D00000240140400500202DE9F04188B000247A
:1039E0000594142168460694FCF7E4FB1020FFF7C9
:1039F00065FD2020FFF762FD0420FFF75FFD082032
:103A0000FFF75CFD364835494FF480424261364E3F
:103A1000DFF8D0804FF21002726101250227039473
:103A20008DE8A2006946FFF7A5FDCDE90274CDE956
:103A3000008569463046FFF79DFD2C488168F022DD
:103A400092FAA2F2B2FA82F221F0F00105FA02F241
:103A5000114381608DF818504FF020088DF81940FF
:103A6000CDF814808DF81A7005A8FFF733FDF068C3
:103A700042F2200198FAA8F2B2FA82F220F0200075
:103A800095402843F06091FAA1F3B3FA83F39D00C7
:103A90000F23AB4091FAA1F13268B1FA81F108200D
:103AA00089009A4388400243114832600068C0F39D
:103AB0000220011D072901D2002000E0C01E0D498F
:103AC0008440200181F800044FF0E0214FF4000011
:103AD000C1F8000108B0BDE8F081000040004004DA
:103AE00000100140F010F004000C014004000140FF
:103AF0000CED00E017E000E00D4810B50B49016047
:103B00000C49416000214FF480428160C0E90312FA
:103B100041618161C1610162FDF7E8FD002803D0C8
:103B2000BDE81040FDF748B810BD0000005400404B
:103B300070050020801A060010B596B000240F947E
:103B400010941194129413941C2168461494FCF759
:103B500031FB202107A8FCF72DFB2C482A49C0E99E
:103B6000001441F61F41C0E9024180210461C0E90F
:103B70000541FEF7AFFB08B1FDF71EF84FF480508A
:103B80000F900FA92148FEF729FC08B1FDF714F8A2
:103B90001E48FEF7ADFE08B1FDF70EF8139413A909
:103BA0001A481494FEF762FB08B1FDF705F860208F
:103BB000CDE900040294039404940594002269461C
:103BC00012480694FEF731FE08B1FCF7F5FF0C220F
:103BD00069460E48FEF729FE08B1FCF7EDFF079491
:103BE000089409944FF400500A94CDE90B4007A9BA
:103BF00006480E94FEF710FB08B1FCF7DDFF034802
:103C0000FEF7ECFD16B010BD002C0140C4050020ED
:103C100010B58CB024216846FCF7CCFA0024164875
:103C200009944FF080410A9401600321C0E9011416
:103C30004FF6FF72C0E90324846100910120CDE9B1
:103C400001400F21CDE90341CDE90540CDE9074110
:103C500069460948FEF72DFC08B1FCF7ADFF099451
:103C600009A905480A94FEF701FB002801D0FCF7DA
:103C7000A3FF0CB010BD00000C06002010B586B0EC
:103C80000024174800940194029403940494134967
:103C90000594016041F61F41C0E901146321C0E9A8
:103CA000031480218161FEF715FB08B1FCF784FF46
:103CB0004FF48050009069460948FEF78FFB08B129
:103CC000FCF77AFF049404A905480594FEF7CEFAA0
:103CD000002801D0FCF770FF06B010BD00040040C2
:103CE0005406002010B58CB024216846FCF762FA17
:103CF00000241648099414490A9401600321C0E97C
:103D000001144FF6FF72C0E9032484610091012081
:103D1000CDE901400F21CDE90341CDE90540CDE9D1
:103D2000074169460948FEF7C4FB08B1FCF744FFA8
:103D3000099409A905480A94FEF798FA002801D0C9
:103D4000FCF73AFF0CB010BD000800409C060020B4
:103D50000C4810B50A4901604FF4E131416000217F
:103D600081600C22C160C0E904128161C161FEF76B
:103D7000A5FF002803D0BDE81040FCF71DBF10BD13
:103D800000380140E40600200C4810B50A490160E3
:103D90004FF4E1314160002181600C22C160C0E933
:103DA00004128161C161FEF789FF002803D0BDE8DC
:103DB0001040FCF701BF10BD004400402807002060
:103DC000FEE7000010B50D4C00224FF48051204654
:103DD000FDF781FC002261142046FDF77CFC0022E7
:103DE0004FF480412046FDF776FC2046BDE81040A8
:103DF00000224FF40041FDF76EBC0000000C0140B2
:103E0000FEE7000070B5802817D2002915DB3F2996
:103E100013DCCB1701EB5375C5F3C70325F007057A
:103E20000124094E491B8C4006EBC000012A05D035
:103E3000C15C022A05D0A143C15470BDC15C2143BD
:103E4000FAE76140F8E700001C01002010B50021EE
:103E5000AE2003F09FFB0021202003F09BFB0021FC
:103E6000102003F097FB0021B02003F093FB00210A
:103E7000C82003F08FFB0021084603F08BFB0021D4
:103E8000102003F087FB0021402003F083FB00217A
:103E9000812003F07FFB0021FF2003F07BFB00214A
:103EA000A12003F077FB0021A62003F073FB002183
:103EB000A82003F06FFB00213F2003F06BFB0021E3
:103EC000A42003F067FB0021D32003F063FB002153
:103ED000084603F05FFB0021D52003F05BFB0021C7
:103EE000F02003F057FB0021D92003F053FB002101
:103EF000222003F04FFB0021DA2003F04BFB0021CE
:103F0000122003F047FB0021DB2003F043FB0021DC
:103F1000202003F03FFB00218D2003F03BFB00211C
:103F2000142003F037FB0021BDE81040AF2003F060
:103F300031BB0000F0B500210D4BFF260C460022DE
:103F400001280FD003EBC20580B16F5CC7F1FF07FA
:103F50006F54521CD2B2802AF2D3491CC9B208292C
:103F6000EDD3F0BD03EBC2056E54F2E76C54F0E7FD
:103F70001C0100200FB4042870B50C46054613D868
:103F8000142C11D80A4E07AA0A483260069900F08C
:103F9000F7FBC4F11501074A0020C9B23060505444
:103FA0002146284600F0D6F870BC5DF814FB0000EE
:103FB000040000209C00002070B50B4E0024214618
:103FC000002000F013F8002506EBC5000121005D7C
:103FD00003F0E0FA6D1CEDB2802DF5D3641CE4B261
:103FE000082CECD370BD00001C01002010B5044665
:103FF000B031C8B2002103F0CDFA102040EA14100D
:10400000002103F0C7FA04F00F00BDE810400021C2
:1040100003F0C0BA1CB50020FFF78CFF1648002142
:1040200016A203680846FFF7A5FF184818A200214A
:1040300003680120FFF79EFF19481BA2002100889A
:104040000090184803880220FFF794FF1A48006880
:10405000FCF75FFBCDE9000118A200210320FFF768
:1040600089FF194819A2002103780420FFF782FF75
:10407000BDE81C40FFF7A0BF78000020656E636FAD
:104080006465724C3A202564000000007C0000202A
:10409000656E636F646572523A202564000000000B
:1040A000580000205600002043783A2025642C4315
:1040B000793A202564000000600000207069746374
:1040C000683A202566000000520000204C696768AD
:1040D000745F53656E733A20256400002DE9F04F3C
:1040E00001EB410100EB400049068006040E203A36
:1040F0004FEA1169D0B2164900EB4000A0460025F6
:1041000001EB800B00261BF805704FFA89FA380680
:1041100001D5012200E0002261B25046FFF772FE95
:104120007806641C070EE4B2A4EB08000C2809D042
:10413000761CF6B2082EEAD36D1CEDB20C2DE1D33D
:10414000BDE8F08F09F10100444600F0FF09F3E7F4
:10415000EC760008F0B517460C46064600250CE044
:1041600021463046FFF7BAFF641CE4B2142C02D992
:104170000024761CF6B26D1CEDB27A5D002AEFD1F8
:10418000F0BD70470021022805D0032809D004287B
:1041900009D0002070474FF08042506A516200B24F
:1041A0007047034A00E0034A1068116000B270478C
:1041B0002404004024080040704700002DE9F0412D
:1041C0000D461B4C06004FF400414FF4804705D5C7
:1041D00001222046FDF77FFA002204E0002220465B
:1041E000FDF779FA012239462046FDF774FA304688
:1041F00003F0CCF90F49086049144E10002D05DA80
:1042000000222046FDF767FA012204E00122204641
:10421000FDF761FA002231462046FDF75CFA284698
:1042200003F0B4F903490C310860BDE8F0810000E7
:10423000000C0140342C0140FDF7EABB30B593B0CF
:1042400028216846FBF7B6FF14210AA8FBF7B2FF46
:10425000002501200F9510951195010412958DE808
:10426000230004904FF4E010CDE9081002240794D5
:104270006846FDF72BFE08B172B6FEE70AA90F20CB
:1042800081E831004FF48060CDE90D0502210AA8D4
:10429000FDF730FD08B172B6FEE74FF40040119013
:1042A0000F940FA8FDF7B0FC002801D072B6FEE70E
:1042B00013B030BD704700000148FEF7DBB90000C5
:1042C00054060020F0B50268164B174C174D4FF0FE
:1042D0008047984205D0B84203D0A04201D0A842FE
:1042E00003D122F070064A683243984205D0B842A2
:1042F00003D0A04201D0A84203D122F44074CA687E
:1043000022434C6922F08002224302608A68C26222
:104310000A688262984201D1096901630121416101
:10432000F0BD0000002C01400004004000080040E7
:1043300010B501F01F030121046A99408C43046207
:10434000016A9A401143016210BD10B5846842EAC7
:10435000032224F47F440A432243826010BD826812
:1043600022F070020A4342F00701816070470000AA
:1043700030B5026A22F001020262026A436884696F
:1043800024F073050C682C4322F002058A682A4346
:104390000A4DA8420BD122F00805CA6823F44073E5
:1043A0002A434D6922F004021D438B692B4343606D
:1043B000846149684163026230BD0000002C014005
:1043C00030B5026A22F010020262026A4368846910
:1043D0000D6824F4E64444EA05248D6822F02002A6
:1043E00042EA05120B4DA8420ED1CD6822F08002A0
:1043F00042EA05124D6923F4406343EA85038D695F
:1044000022F0400243EA8503436084614968816386
:10441000026230BD002C014030B5026A22F4807285
:104420000262036A4268C46923F4007324F07305CE
:104430000C682C438D6843EA05230C4DA8420ED12D
:10444000CD6823F4006343EA05234D6922F440520A
:1044500042EA05128D6923F4806342EA0512426044
:10446000C4614968C163036230BD0000002C014093
:1044700030B5026A22F480520262046A4268C3695B
:104480000D6823F4E64343EA05238D6824F40054C1
:1044900044EA0534064DA84204D14D6922F4804215
:1044A00042EA85124260C36149680164046230BD1A
:1044B000002C014010B5036A046A24F00104046270
:1044C000846924F0F00444EA021423F00A020A4347
:1044D0008461026210BD10B5036A23F01003036209
:1044E0008369046A23F4704343EA023224F0A00390
:1044F00043EA01118261016210BD10B5406A0021DA
:10450000C185C184FEF7D2FA10BD0168CA6822F4E1
:104510009072CA6001684A6922F001024A61016B27
:10452000012904D10168CA6822F01002CA60202162
:1045300080F83E1000210163704708B590F83E10E6
:10454000222901D0022008BD82684FF480539A428C
:1045500001D1016921B1816A9A421BD04AB10AE0B6
:104560000268816A5268C2F308020A80816A891C63
:1045700008E0026972B10268526802F07F020A70B4
:10458000816A491C8162C18D491E0904090CC185DB
:1045900003D019E002685268F1E70168CA6822F0A6
:1045A0002002CA600168CA6822F48072CA60016889
:1045B0004A6922F001024A61202180F83E10016B15
:1045C000012903D0FEF72EFC002008BD0021016365
:1045D0000168CA6822F01002CA6001680A68D2063F
:1045E00002D50A6849680091818DFEF75EFAEBE713
:1045F00070B5044600680169E26821F44051114336
:1046000001612169A0680843616908432168CA689B
:1046100041F20C639A430243CA6020684169A2696F
:1046200021F44071114341611E492068884202D142
:10463000FDF706FC01E0FDF7F3FB00EBC00101EB29
:104640000012606864218000B2FBF0F3B3FBF1F369
:104650006FF018067343B2FBF0F5B2FBF0F605EB12
:104660008305322303EB0515B5FBF1F5B6FBF1F637
:1046700005F0F00505EB0615B2FBF0F6B2FBF0F025
:10468000B0FBF1F06FF01802504306EB800003EB33
:104690000010B0FBF1F0216800F00F0028448860A2
:1046A00070BD00000038014081628285C285002112
:1046B0000164222280F83E2080F83C100168CA681C
:1046C00042F48072CA6001684A6942F001024A619C
:1046D0000068C16841F02001C160002070472DE9E9
:1046E000F041984617460E460446069D1DE0681C9C
:1046F0001BD02DB1FCF7F4FFA0EB0800A84214D9A1
:104700002068C16821F4D071C1602068416921F03E
:1047100001014161202084F83D0084F83E00002022
:1047200084F83C000320BDE8F0812068006836EA88
:10473000000004D00020B842D9D00020F3E70120C7
:10474000F9E700000148FEF7B3B90000E4060020D5
:104750000148FEF7ADB9000028070020FEE7000081
:104760000FB4054B10B503A9044A029800F06EF986
:1047700010BC5DF814FB00004961000894000020A3
:1047800037B514460846064B6A46214600F05EF9E6
:1047900004466946002000F0F0FC20463EBD0000C3
:1047A0007B510008490050EAC12018BF04204A0D7F
:1047B00018BF40F0010040F2FF72B2EB515F08BF3A
:1047C00040F00200012808BF052070470907090EC4
:1047D000002804DB00F1E02080F80014704700F0AE
:1047E0000F0000F1E02080F8141D70472DE9F04122
:1047F0004F1E00EBC7010446D1E9000115461E46D5
:1048000037F006020DD02A463346FBF766FE7F1EC0
:1048100004EBC703D3E90023FBF7B8FD37F006022A
:10482000F1D1022F25D0042F13D0062F18BFBDE8D9
:10483000F0812A463346FBF750FED4E90A23FBF702
:10484000A5FD2A463346FBF748FED4E90823FBF7CB
:104850009DFD2A463346FBF740FED4E90623FBF7CD
:1048600095FD2A463346FBF738FED4E90423FBF7CF
:104870008DFD2A463346FBF730FED4E90223FBF7D1
:1048800085FD2A463346FBF728FED4E90023BDE820
:10489000F041FBF77BBD0122FCF766B8FBF776BD64
:1048A0000022134610461146FBF789BE024A00203B
:1048B0001107FCF759B8000001FDFFFF02E008C82E
:1048C000121F08C1002AFAD170477047002001E08A
:1048D00001C1121F002AFBD1704700000149086086
:1048E00070470000980000202DE9FF5FDDE90220FD
:1048F000010DDDF838B0024318D044F61050A1F293
:10490000FF3141430D140F98012820D0A5EB0B0077
:10491000401C5FEA000A4FF00004474EDFF81C918C
:10492000A046504616D5CAF1000728E00F9801248A
:1049300043A2012808D0002100980F9BC0E9002164
:10494000C0E90243BDE8FF9F6FEA0B01F4E7CBF13A
:104950000000DEE7074612E0F80707D0224633469C
:1049600040464946FBF7B9FD804689462246334614
:1049700010461946FBF7B1FD04460E467F10002F86
:10498000EAD1DDE90201BAF1000F42464B4602DAF4
:10499000FBF7A3FD01E0FBF712FE04460E460022E2
:1049A000284BFCF711F803D84FF0FF30014607E021
:1049B0000022254B20463146FBF7E8FCFBF7EBFFD6
:1049C000102409E0002C0ADB0A220023FBF7E6FE94
:1049D000019B30321A55641E50EA0102F2D1641C68
:1049E000019AC4F1110314440F9A012A03D0012241
:1049F00008430DD10AE0084304D000204FF0110B0A
:104A00000F9080E7A3EB0B056D1E0DE05B4504DD09
:104A10004FF0000205F1010504E003DA4FF0000257
:104A2000A5F10105002AECD000980F99C0E90231E8
:104A3000C0E9004586E70000000024400000F03F88
:104A4000300000000000F0430000E03F2DE9FF4F80
:104A500095B09B468946064600250FE2252877D16A
:104A600000242746F84A0121059400E0044316F883
:104A7000013F203B01FA03F01042F7D130782A2899
:104A800011D06FF02F033078A0F13002092A16D828
:104A9000059A44F0020402EB820203EB4202104446
:104AA000761C0590EFE759F8042B0592002A03DAEB
:104AB000504244F40054059044F00204761C3078CF
:104AC0002E2816D116F8010F44F004042A280DD020
:104AD0006FF02F023078A0F13003092B09D807EBD3
:104AE000870302EB4303C718761CF3E759F8047BEE
:104AF000761C30786C280FD006DC4C2817D068283C
:104B00000DD06A2814D104E0742810D07A280FD16F
:104B10000DE044F400140AE044F4801401E044F48D
:104B200040147278824202D104F58014761C761CFF
:104B3000307866280BD013DC582877D009DC0028A1
:104B400075D04528F6D04628F4D047281AD19DE1E3
:104B500018E0632835D0642879D0652812D195E112
:104B6000702873D008DC6728F1D069286FD06E28D0
:104B70000DD06F2806D1B5E073282CD0752875D0DC
:104B8000782874D05A46179990476D1C75E1C4F384
:104B90000250022809D003280DD0D9F800100428AB
:104BA0000DD00D6009F1040967E1D9F80010EA178A
:104BB000C1E90052F6E7D9F800100D80F2E70D7058
:104BC000F0E719F8041B8DF8001000208DF80100A3
:104BD000EA46012003E059F804AB4FF0FF306107CB
:104BE0004FF0000102D40DE008F101018846B942FE
:104BF0000FDA8045F8DB1AF808100029F4D108E034
:104C000008F1010188468142FADB1AF808100029F0
:104C1000F6D105985B46A0EB080721463846179A5F
:104C200000F094FA284400EB080507E04DE029E184
:104C30000DE01AF8010B5A4617999047B8F1010890
:104C4000F7D25B4621463846179A13E142E00A2222
:104C50000092C4F302524FF0000A022A08D059F819
:104C600004CB032A4FEAEC710AD00DE029E02AE0D8
:104C700009F1070121F00702F2E802C1914609E0BB
:104C80000FFA8CFC4FEAEC71042A03D14FFA8CFC2A
:104C90004FEAEC71002907DA0A460021DCF1000C2A
:104CA00061EB02012D2202E0220504D52B228DF8B2
:104CB0000420012203E0E20701D02022F7E790461A
:104CC00059E00A2102E010220DE010214FF0000A05
:104CD00000910BE010224FF0000A44F00404082772
:104CE000009203E008224FF0000A0092C4F302523F
:104CF000022A05D059F804CB0021032A08D009E084
:104D000009F1070121F00702F2E802C1914605E02E
:104D10001FFA8CFC042A01D10CF0FF0C4FF00008A4
:104D2000220728D5702806D0009B83F0100353EA91
:104D30000A0305D00EE040228DF80420012208E08D
:104D40005CEA010206D030228DF804208DF80500BF
:104D500002229046009B83F0080353EA0A030AD11B
:104D60005CEA010201D1620705D530228DF80420EA
:104D70004FF001087F1E582804D034A003900EA8DD
:104D800002900DE036A0F9E753466046009AFBF723
:104D900005FD84460398825C0298401E02900270D2
:104DA0005CEA0100F0D1029806A9081A00F1200A75
:104DB000600702D524F4803400E00127574502DD66
:104DC000A7EB0A0000E0002000EB0A010090059824
:104DD0004144401A0590E00306D45B462146179AE9
:104DE000059800F0B3F90544002706E001A85A46EB
:104DF000C05D179990476D1C7F1C4745F6DBE003AB
:104E00000CD55B462146179A059800F09FF905449A
:104E100004E030205A46179990476D1C0099481EAF
:104E200000900029F5DC08E0029802995A460078C3
:104E3000491C0291179990476D1CBAF10001AAF123
:104E4000010AF1DC65E1000009280100303132334C
:104E500034353637383961626364656600000000B6
:104E600030313233343536373839414243444546A0
:104E70000000000000F058F90544761C3078002846
:104E80007FF4ECAD19B02846BDE8F08F620700D47E
:104E9000062709F1070222F0070CFCE80223E1468D
:104EA00003F000485FEA080C02D00FF2702C0DE00E
:104EB0005FEA045C02D50FF2682C07E05FEAC47C6D
:104EC00002D00FF2602C01E0AFF2700C4FF0FF380F
:104ED00023F00043CDF850C065280CD006DC4528EF
:104EE00009D046281DD047283DD13DE0662818D07E
:104EF00067287ED138E00021112F01DB112000E06E
:104F0000781CCDE9000106A90EA8FFF7EDFCDDE94C
:104F10000F010E9A03910021009207F1010A0491FA
:104F20004DE04FF000400097CDE9011006A90EA812
:104F3000FFF7DAFCDDE90F0203920E9B11990022C4
:104F4000DDF80CA00093049211B9791C00EB010A62
:104F5000B7EB0A0004D4C0F1FF3007F1010A049056
:104F6000AAEB0700019044E0012F00DA012700219D
:104F7000112F01DD112000E03846CDE9000106A91E
:104F80000EA8FFF7B1FCDDE90F010E9A0391002195
:104F900004910092BA4621070CD40399514500DAD6
:104FA0008A46BAF1010F05DD009AAAF10101515CB0
:104FB000302908D0B84202DA10F1040F06DA0121D4
:104FC000CDE9011015E0AAF10101E9E7002805DCAF
:104FD000049901440491AAEB000102E0411C5145EF
:104FE00000DD8A460499401A401C01904FF00040B1
:104FF0000290200704D40198504501DBCDF80480CD
:1050000000208DF84F0002980DF14F07B0F1004FCE
:1050100025D02B200E9002984FF0020800280CDAC1
:10502000404202902D200E9007E00A210298FBF7E3
:105030009FFB3031029007F8011DB8F10001A8F183
:105040000108F2DC02980028EFD1791E0E98087052
:10505000307800F0200040F0450007F8020D12A85B
:10506000C01B00F107081498007800B1012000EB84
:105070000A01019801EBE07105984144401A401E75
:105080000590E00306D45B462146179A059800F088
:105090005DF805441498007818B15A46179990475E
:1050A0006D1CE00324D55B462146179A059800F055
:1050B0004DF805441CE00498002807DBDDE90301F6
:1050C000884203DD0098405C179901E01799302071
:1050D0005A469047049805F10105401C0490019838
:1050E000401E019004D12E205A46179990476D1CFE
:1050F000BAF10001AAF1010ADDDC05E017F8010BA5
:105100005A46179990476D1CB8F10001A8F10108A3
:10511000F4DC5B462146179A0598ABE62D000000AB
:105120002B000000200000002DE9F041044600257E
:105130001E461746880404D405E039462020B047AF
:105140006D1C641EF9D52846BDE8F0812DE9F041BB
:10515000044600251E469046C80301D5302700E0CE
:105160002027880404D505E041463846B0476D1C29
:10517000641EF9D52846BDE8F0810A68531C0B600F
:10518000107070472DE9FE4F07460E460025684611
:1051900000F0E6FF00246FF00F0AE8464FF0010927
:1051A00057F8240056F82410401A00D54042FBF767
:1051B00075FA5146FBF7DEF858F8241011F0FF4F4E
:1051C0000BD0FBF799F84FF07E51FBF75DF80A49D9
:1051D00020F00040884205DC07E0084908440849FF
:1051E000884202D309FA04F00543641C032CD7DB80
:1051F0002846BDE8FE8F0000295C0F3E666666C14A
:105200009A99D9002DE9F04D8D4F21F0004A86B0D2
:1052100005460C46BA452ADBAAEB070028430AD00C
:105220008848824501DC1AD1CDB106B02846BDE8D8
:10523000F04DFFF730BB844A844B2846FBF74DF90D
:1052400007460E46824A834B28462146FBF745F91E
:1052500006B03A463346BDE8F04DFBF797B801205B
:10526000FFF73CFB06B0BDE8F04DFFF719BB7A48ED
:10527000824542DABAF1795F0BDA2846FFF792FAF3
:10528000042808BFFFF712FB284606B02146BDE8F8
:10529000F08D2A460B461046FBF71FF9834602465F
:1052A0006E480E460B4606217844FFF79FFA5A4691
:1052B0003346FBF712F9804669488A465A46334618
:1052C00004217844FFF792FA5A463346FBF705F972
:1052D00000223B46FBF75AF802460B464046514631
:1052E000FBF76DF92A462346FBF7F7F806B02A4686
:1052F0002346BDE8F04DFBF749B8284624F00041AD
:1053000000223D463B46FBF7E5F84FF0FF32FBF746
:105310002BFB0646024653480F460B4606217844AF
:10532000FFF764FA32463B46FBF7D7F8CDE90001B8
:105330004D4832463B4604217844FFF757FA32463F
:105340003B46FBF7CAF800222B46FBF71FF88346C3
:1053500002913046394602F0A3F9804643480D4693
:10536000504517DCDDE900015A46029BFBF727F99F
:1053700042462B46FBF7B1F842462B46FBF706F8B0
:105380000122FBF7F1FA304A304BFBF7A0F8304A24
:10539000304B4CE04FF0000A52460B464046FAF7BD
:1053A000F5FFCDE9031052462B4610461946FBF790
:1053B00094F832463B46FBF78DF8DDE90332FBF704
:1053C000FEF806460F46DDE900015A46029BFBF750
:1053D000F6F883460091012230463946FBF7C4FABD
:1053E000194A1A4BFBF776F806460F46012240464B
:1053F0002946FBF7B9FA5A46009BFBF76EF832468E
:105400003B46FBF764F806460F4601225046294604
:10541000FBF7AAFA0E4DDFF858802A464346FBF701
:1054200059F832463B46FBF755F82A464346FBF708
:1054300051F8002CD8BF81F0004106B0BDE8F08DD6
:105440000000F03F0000F07F075C143326A6913C7B
:10545000182D4454FB21F93F0000E03F14350000B3
:105460002A3500009E340000B43400003333EF3F8F
:10547000FB21E93F2DE9F84F04460D4621F000409D
:1054800000917349814211DC7249884201DC06D1E6
:105490002CB120462946BDE8F84FFFF7FCB96E480D
:1054A000002DCCBF6D496E49BDE8F88F6D49814232
:1054B00011DD6D498142D8BF4FF0FF366DDD2046CA
:1054C0002946FFF76FF9042808BFFFF7EFF92046D8
:1054D0002946BDE8F88F6549654F25F000458142B2
:1054E00033DD6449814219DD002632464FF08043A6
:1054F00020462946FAF74AFF80468A46012220467E
:105500002946FBF731FA00223B46FAF7E0FF424614
:105510005346FBF754F804460D463EE001260022B0
:10552000BA463B4620462946FAF730FF80460F46EA
:105530000022534620462946FAF7C9FF42463B4619
:10554000FBF73DF804460D4627E04B4981421BDD41
:10555000DFF828A102260022534620462946FAF702
:10556000BCFF00223B46FAF711FF80460F4600229F
:10557000534620462946FAF7AAFF42463B46FBF728
:105580001EF804460D4608E0032622462B4600205E
:105590003B49FBF714F804460D4622462B461046BD
:1055A0001946FAF79AFF8B46824602460B46FAF7EF
:1055B00094FF07460246334888460B460621784446
:1055C000FFF714F952465B46FAF787FF82462E48EA
:1055D0008B463A46434605217844FFF707F93A4699
:1055E0004346FAF77AFF02460B46002E50465946CC
:1055F0000CDAFAF7CBFE22462B46FAF76EFF01B023
:1056000022462B46BDE8F04FFAF764BFFAF7BEFE1C
:1056100022462B46FAF761FF1C4A7A4402EBC60386
:10562000D3E90023FAF753FF22462B46FAF74FFF40
:10563000174A7A4402EBC603D3E90023FAF74AFF7C
:10564000009A002AB8BF81F00041BDE8F88F000041
:10565000000010440000F07F182D4454FB21F93F56
:10566000FB21F9BF0000DC3F0000203E0000F33FBB
:105670000000F03F0000E63F008003400000F83FDC
:105680000000F0BFB6320000743200001232000099
:10569000DA3100002DE9F04D9446CCF1000423F0FE
:1056A00000464CEA0404524F46EAD4749A468846AF
:1056B00021F00042BC4206D8454240EA050442EAD5
:1056C000D474BC4204D9BDE8F04D6246FFF7E6B899
:1056D000AAF14055A5F17F6555EA0C040BD00224D0
:1056E00004EAAA74434DDFF810E144EAD87452EAA0
:1056F000000B04D00CE0BDE8F04DFFF7BBBE002C62
:1057000014BF012CBDE8F08D022C30D0032C32D018
:1057100056EA0C0B0AD0BE4220D1BA4209D126F07B
:10572000804622F080423346114617E000291ADBFA
:1057300025E0DFF8C8B0FB44002C04BFDBE9000122
:10574000BDE8F08D012C02BFDBE9000181F00041D2
:10575000BDE8F08D022C0AD0032C0CD0BA4212D135
:10576000B8F1000F0BDA23482549BDE8F08D284633
:105770002449BDE8F08D28467146BDE8F08D1D48EE
:105780002149BDE8F08D921B12153C2AC4BF19486F
:105790001D490EDCBAF1000FBEBF12F13C0F002014
:1057A000014606DB6246FAF70AFF21F00041FFF7E7
:1057B00061FE002C08BFBDE8F08D012C04BF81F014
:1057C0000041BDE8F08D114A114B022C07D0FAF7C9
:1057D0007EFE2A46BDE8F04D0A4BFAF778BEFAF78E
:1057E00076FE2A46BDE8F04D064BFAF773BE000080
:1057F0000000F07F182D4454FB2109C06E310000D9
:10580000FB21F9BFFB210940FB21F93F075C143361
:1058100026A6A13C08B560B120208DF80000282004
:105820008DF8010030208DF8020038208DF803003B
:1058300004E0A32204216846FAF7B5FC6A46042175
:1058400040F69E2001F078FE01F036FB08BD000016
:105850003EB5044602208DF80000CA208DF80100F4
:10586000E3208DF8020009208DF803006A46042128
:10587000682001F061FEA3208DF80000610609D5C3
:10588000C0218DF80110C8218DF80210C2218DF8B9
:10589000031005E08DF801008DF802008DF803007B
:1058A00014F4C07F09D0C4218DF80410CC218DF8E8
:1058B0000510C6218DF8061005E08DF804008DF85E
:1058C00005008DF806008DF808008DF807008DF8AA
:1058D00009006A460A2140F6A72001F02DFEA00724
:1058E0004FF0D80503D020208DF8000001E08DF89E
:1058F00000506A46012140F6B62001F01DFEA006C8
:1059000001D5012000E0002000F08EF814F4C07FE3
:105910001ED0E0050AD5B2208DF800008B208DF84E
:105920000100B6208DF802009B2009E0B0208DF820
:10593000000080208DF80100B4208DF80200902036
:105940008DF803006A46042140F6A22001F0F4FD20
:10595000E1074FF40B6022D0F8218DF800106A4661
:10596000012101F0E9FDFA21072000F039FB0720B1
:1059700000F004FB012000F021FB642000F0C4FBD8
:105980004FF4FA7000F0D0FBC821254800F0BEFAB1
:10599000282000F0D3FA0A2000F0E0FA05E08DF8A4
:1059A00000506A46012101F0C7FDA00703D5D920A8
:1059B0008DF8000001E08DF800506A46012140F2A8
:1059C0003D7001F0B9FD600701D5012000E0002025
:1059D00000F048F8E00601D5012000E00020FFF7C4
:1059E00019FF104D44F00800688101F065FA0020AD
:1059F000A873600601D50620A87314F4C07F02D0F6
:105A0000A87B801DA87314F0140F02D0A87B10305F
:105A1000A873A00702D0A87B001DA87300203EBD7C
:105A200009E3CA021C0500200EB54FF4976310B1BC
:105A300006A107C901E008A207CA8DE807006A4667
:105A40000921184601F078FD0EBD0000B8AAB38DFB
:105A5000B4980D355D000000B8AAAAAAB088C3C5E5
:105A6000C700000008B560B1C0208DF80000C2205A
:105A70008DF80100C4208DF80200C6208DF80300C7
:105A800004E08B2204216846FAF78DFB6A46042164
:105A900040F6982001F050FD01F00EFA08BD00001C
:105AA000C8234FF48062024940F6F63001F0E6B8B0
:105AB000B07B00082DE9FF4F89B01746DDE916528B
:105AC00000244C4E884681462C80A246B07B694615
:105AD00001F080F94FF0FF3B18B158460DB0BDE81A
