:020000040800F2
:10000000380B002001010008B53100089D240008CC
:1000100075310008BF0A00082D3A000800000000F2
:10002000000000000000000000000000A5340008EF
:10003000C10A0008000000006F34000825350008E0
:100040001B0100081B0100081B0100081B01000820
:100050001B0100081B0100081B0100081B01000810
:100060001B0100081B0100081B0100081B01000800
:100070001B0100081B0100081B0100081B010008F0
:100080001B0100081B0100081B0100081B010008E0
:100090001B0100081B0100081B010008C50A00081D
:1000A0001B0100081B0100081B0100081B010008C0
:1000B0001B010008893500081B0100081B0100080E
:1000C0001B0100081B0100081B0100081B010008A0
:1000D0001B010008153A0008213A00081B0100081E
:1000E0001B0100081B0100081B010008DFF80CD0F1
:1000F00000F082FC0048004761590008380B0020DE
:100100000648804706480047FEE7FEE7FEE7FEE7B1
:10011000FEE7FEE7FEE7FEE7FEE7FEE787350008BD
:10012000ED0000082DE9F0410024061B254671F181
:10013000000605DA01240027D0EB070067EB010178
:10014000161E73F1000605DA0027D2EB070201251F
:1001500067EB030300F022FB86460E4617469C46DB
:10016000AC4204D00025D0EB050E65EB010624B1AE
:100170000020D2EB000760EB030C704631463A4694
:100180006346BDE8F081202A04DB203A21FA02F020
:100190000021704721FA02F3D040C2F120029140C1
:1001A000084319467047D2B201E000F8012B491EFE
:1001B000FBD270470022F6E710B513460A46044604
:1001C0001946FFF7F0FF204610BD30B50446002069
:1001D000034600E05B1C934203D2E05CCD5C401B15
:1001E000F8D030BDF0B480EA0102D40F4200B2EB87
:1001F000410F02D20246084611464A0042D0C30DC2
:10020000DDB2C1F3C752AD1A202D35DAC1F31601A4
:1002100041F4000204B15242C5F1200602FA06F18F
:100220002A411044B3EBD05F23D0C4B1012DA0EB21
:10023000C35009DCF0BC4FF0004202EAC352DBB20B
:1002400000F5000000F005BB400000F1807000EBFD
:10025000C350A0F1807040EAD170490009E049081C
:1002600041EAC071A0EBC35000F50000400800EB6C
:10027000C350F0BC00F0E4BA6142012202EB41013C
:10028000001BF6E7F0BC704781F00041AAE780F060
:100290000040A7E780EA010210B502F000434000E9
:1002A00022D04A001FD0010E01EB1261C0F35600AC
:1002B000C2F3560240F4000042F40002A0FB022008
:1002C00000047F39140400D0401C50EA124001D4CD
:1002D0004000491EC2B20C0604EBD010401C40087E
:1002E000802A02D003E0002010BD20F00100002988
:1002F00000DA0020184310BD30B480EA010202F099
:10030000004530F0004221F0004013D090B1C30D01
:10031000D40DC2F31601C0F31600E41A41F4000133
:1003200040F400027D34914201D3641C00E0490096
:10033000002C02DA30BC002070474FF4000000238C
:10034000914201D3891A034340084FEA4101F7D192
:1003500051B1914202D14FF0004105E002D24FF07D
:10036000010101E06FF0010103EBC450284430BCEF
:1003700000F066BA420005D0C0F3C7525242914223
:1003800001DC0020704700EBC15070472DE9FE4FA3
:10039000804681EA0300C00F0C46009021F0004126
:1003A00023F00045B8EB0200A94105D240462146A2
:1003B00090461C460B46024623F00040104347D0AF
:1003C000270DC7F30A00C3F30A510290401A0190A7
:1003D00040286BDAC3F3130040F4801B0098924668
:1003E00020B10023D2EB030A63EB0B0B01985946B3
:1003F000C0F14002504600F002FA06460D46504653
:100400005946019A00F00AFA10EB080061410024F5
:1004100087EA115284EAE7731A4340D0009A62B324
:10042000019A012A4FEA075215DC001B61EB020119
:100430004FF0004202EA0752CDE90042001C41F5AC
:10044000801132462B4600F041FA03B0BDE8F08F30
:1004500040462146F9E7001B61EB0201001C41F513
:10046000801300185B412018A2F5001747EB030129
:1004700040EAD570B6196D4111E06D084FEA3606B5
:1004800045EAC0754FEA0752001B61EB0201001CF0
:1004900041F5801149084FEA3000001951413246B8
:1004A0002B4603B0BDE8F04F00F001BA00980122DE
:1004B00040000023D0EB020263EBE073009821467A
:1004C0004FEAE074B8EB000061EB0401E9E783F068
:1004D00000435BE781F0004158E72DE9FE4F81EAD8
:1004E000030404F0004421F0004100944FF0000B9D
:1004F00023F0004350EA01045ED052EA03045BD0CB
:10050000C3F30A54C1F30A552C44A4F2F334019402
:10051000A0FB0254C1F3130141F48011C3F3130390
:1005200043F4801301FB024400FB034E840A970A44
:1005300044EA815447EA8357A4FB076802958D0A71
:1005400005FB07854FEA932C04FB0C542705029DFD
:100550004FEA065847EA1637B5EB08056EEB070C6D
:10056000870E920E47EA811742EA8312A7FB020127
:10057000B6EB0B0164EB00042B0D43EA0C335E1861
:1005800044EB1C50DA465146E7FB0201C5F3130465
:100590004FEA0B3343EA14534FEA0432019C43EA17
:1005A0000603A4F10C040294009CCDE900B400F011
:1005B0008DF903B0BDE8F08F00200146F9E72DE981
:1005C000F04D81EA030404F0004B21F0004514468D
:1005D0004FF0000A23F0004150EA050220D054EA0F
:1005E00001021DD0C5F30A570246C5F31303C1F338
:1005F0001300C1F30A5640F4801543F48013A7EBAF
:100600000608101BD64608F2FD3873EB050002D32E
:1006100008F1010801E092185B41B8F1000F03DA1C
:1006200000200146BDE8F08D00204FF48011064601
:1006300084460EE0171B73EB050705D3121B63EB13
:10064000050306434CEA010C49084FEA30009218B2
:100650005B4150EA0107EDD152EA030012D082EA71
:10066000040083EA0501084305D0101BAB4106D204
:100670000122002306E000224FF0004302E06FF069
:10068000010253101AEB06004CEB085110EB0A0064
:1006900041EB0B01BDE8F04D00F009B9C10F80EA54
:1006A000E0700844CA079623002100F0D2B89623D0
:1006B0000022114600F0CDB800F0004220F00040CA
:1006C000C10DC0F3160040F400007F2901DA0020BC
:1006D0007047962903DCC1F19601C84001E09639C4
:1006E0008840002AF4D04042704720F00040C10DFD
:1006F000C0F3160040F400007F2901DA00207047A3
:10070000962903DCC1F19601C840704796398840AC
:10071000704700F0004230F000400AD0C10D01F5F2
:100720006071C0F3160042EA0151C208400711434C
:10073000704700200146704701F0004330B421F0BB
:10074000004150EA010206D00A0DA2F56072C1F321
:100750001301002A02DC30BC00207047440F44EA39
:10076000C104C100E01830BC00EBC25000F068B812
:1007700030B50B46014600202022012409E021FA71
:1007800002F59D4205D303FA02F5491B04FA02F56E
:100790002844151EA2F10102F1DC30BD2DE9F05F05
:1007A0000546002092469B468846064681464024E0
:1007B0001BE02846414647462246FFF7E4FC5346E5
:1007C0005A46C01A914110D311461846224600F0ED
:1007D00016F82D1A67EB01084F462246012000212A
:1007E00000F00DF817EB00094E41201EA4F10104A2
:1007F000DFDC484631462A464346BDE8F09F202AC2
:1008000004DB203A00FA02F1002070479140C2F167
:10081000200320FA03F3194390407047202A06DB97
:10082000CB17203A41FA02F043EAE07306E041FABE
:1008300002F3D040C2F120029140084319467047AC
:100840000029A8BF7047401C490008BF20F00100E4
:10085000704710B4B0FA80FC00FA0CF050EA0104C2
:1008600004BF10BC704749B1CCF1200421FA04F454
:1008700011FA0CF118BF012121430843A3EB0C012D
:10088000CB1D4FEA00614FEA102042BF002010BC90
:10089000704700EBC35010440029A4BF10BC704740
:1008A000401C490008BF20F0010010BC704710B583
:1008B000141E73F1000408DA401C41F10001921883
:1008C0005B411A4301D120F0010010BD2DE9F04D2C
:1008D00092469B4611B1B1FA81F202E0B0FA80F281
:1008E00020329046FFF78BFF04460F4640EA0A008D
:1008F00041EA0B0153465A46084313D0114653EAC6
:10090000010019D0C8F140025046FFF73CFC0546F3
:100910000E46504659464246FFF771FF084305D040
:10092000012004E020463946BDE8F08D0020054353
:1009300046EAE0762C4337430A986305E40AA0EBC5
:1009400008000022FD0A44EA47540A3002D500207C
:100950000146E9E7010510196941DDE9084500197B
:100960006941BDE8F04DA2E770B521F000430343B3
:100970000CD0C1F30A550024D5EB040564EB040345
:10098000D617AD1AB34102DB0020014670BD201816
:1009900041EB025170BDC1F30A52C1F3130140F2A1
:1009A000FF3341F480119A4202DA00200146704779
:1009B00040F233439A42A2F2334202DC5242FFF742
:1009C000E2BBFFF71CBF000030B5041E71F100044C
:1009D00004DB4FF00044404264EB0101141E73F14C
:1009E000000405DB1C464FF00043524263EB040356
:1009F000994208BF904230BD064C074D06E0E068C2
:100A000040F0010394E8070098471034AC42F6D355
:100A1000FFF770FB507C0008707C00082DE9F04D5A
:100A200000231A461B1A8A4103DB00200146BDE859
:100A3000F08DC1F30A52C1F3130141F480154FF058
:100A4000000BD10702D100186D41521E0027044649
:100A500040F2FF11384601EB620A3E4680460246EC
:100A600000204FF48011FFF78EFBC2197141BB18B3
:100A700046EB0100B4EB030C75EB000C04D3E41A55
:100A800065EB000517460E46241908F101006D417B
:100A900080463428E3DDF91946EB0600091BA8411E
:100AA00003D24FF0FF32134601E0002213461BEB46
:100AB000070046EB0A51BDE8F04DFFF7F8BEFEE730
:100AC00070470000034920200A68904301D120208C
:100AD000086070471404014072B6FEE710B590F844
:100AE00021100022022905D00421816380F82020F2
:100AF000012010BD01680B6823F00E030B60016834
:100B00000B6823F001030B6090F84030C46B0121A7
:100B100001FA03F3636080F8211080F8202010466A
:100B200010BD000010B590F821100024022903D058
:100B30000421816301243DE001680A6822F00E026D
:100B40000A6001680A6822F001020A601A4A016814
:100B5000914201D1012121E0174A1432914201D181
:100B600010211BE0144A2832914201D1891515E069
:100B7000114A3C32914201D189140FE00E4A5032A1
:100B8000914202D14FF4803108E00B4A6432914225
:100B900002D14FF4801101E04FF08071064A083A0B
:100BA0005160012180F82110002180F82010416B54
:100BB00001B18847204610BD0800024070B50446C8
:100BC00000F008F90546601C02D00448007804448F
:100BD00000F000F9401BA042FAD370BD8000002055
:100BE0002DE9F84FDFF8B891002409F1040A0AF161
:100BF000040B23460F270BF1040EC9E00125A54085
:100C00002A40AA427DD1674ED1F804C0ACEB060859
:100C1000B44532D014DCBCF1030F3AD009DCBCF18E
:100C2000000F2AD0BCF1010F1CD0BCF1020F31D152
:100C30001DE0BCF1110F17D0BCF1120F2AD119E041
:100C4000B8F5881F19D006DCB8F5803F15D0B8F587
:100C5000801F1FD111E0B8F5001F0ED0B8F5041F9A
:100C600018D10AE0CB6815E0CB681B1D12E0CB68F9
:100C700008330FE0CB680C330CE08B682BB1012BF1
:100C80004FF0080303D0456104E0042302E005614E
:100C900000E00023FF2A01D8064601E000F1040627
:100CA0004FEA840501D9A5F12005D6F8008007FA9E
:100CB00005FC28EA0C0803FA05F548EA0508C6F819
:100CC00000804D68ED0062D5374DAE6946F00106F3
:100CD000AE61AD6924F0030605F001050095334DC2
:100CE00006EB050CDCF80850A607360F07FA06F8E5
:100CF00025EA0805DFF8B880404503D14FF0000829
:100D000017E044E0DFF8AC80404502D14FF0010825
:100D10000FE0DFF8A480404502D14FF0020808E060
:100D2000DFF89880404502D14FF0030801E04FF012
:100D3000040808FA06F848EA0508CCF808804D6867
:100D4000D9F80060ED034D4601D5164300E0964307
:100D50002E604D68DAF80060AD03554601D51643A4
:100D600000E096432E604D68DBF80060ED025D46C2
:100D700001D5164300E096432E604D68DEF8006012
:100D8000AD02754601D5164300E096432E60641C03
:100D90000D682A46E5407FF431AFBDE8F88F0000CA
:100DA000000401400000111000100240000001404A
:100DB00000080140000C01400010014000140140F7
:100DC0008068084000D0012070470AB10161704777
:100DD0000904FBE70148806870470000800000209C
:100DE00070B5040025D094F83D00002520B984F8A2
:100DF0003C50204600F04EF9242084F83D00206845
:100E0000016821F0010101602068016841F400419E
:100E100001602068016821F40041016000F0A0FA3F
:100E20004D4A6168914201D84C4900E04C498842E2
:100E300001D2012070BD4B492368B0FBF1F15E681F
:100E400026F03F060E435E606368934206D94FF476
:100E5000967359434FF47A73B1FBF3F12368491C3D
:100E60001E6A26F03F06314319626168914210D82C
:100E70004900401EB0FBF1F2521CC2F30B02042ADF
:100E800001D2042022E0B0FBF1F0401CC0F30B00C3
:100E90001CE0A268F2B301EBC10303EB0116431E91
:100EA000B3FBF6F35B1C43F480431B0549D092B3BC
:100EB00001EBC10202EB0111401EB0FBF1F0401C3E
:100EC000C0F30B0040F4804040F400402168CA6940
:100ED0004CF6FF739A431043C861D4E907100143ED
:100EE0002068026822F0C00211430160D4E90301C6
:100EF00001432068826848F2FF339A4311438160BE
:100F0000D4E9050108432168CA6822F0FF021043B2
:100F1000C86001E00EE016E02068016841F00101C0
:100F200001602564202084F83D00256384F83E504C
:100F3000002070BD01EB4106431EB3FBF6F35B1CC2
:100F4000B3E70120C2E701EB4101401EB0FBF1F025
:100F5000401CC0F30B00B7E7A086010080841E0090
:100F600000093D0040420F002DE9F84F1F46904612
:100F70008A460446DDF82890FFF72CFF054694F8D2
:100F80003D0020287FD119230122404920460095A9
:100F900001F010FB002876D194F83C00012872D0B3
:100FA000012084F83C0020680168C90703D101686A
:100FB00041F0010101602068016821F400610160D5
:100FC000212084F83D00102084F83E00002626648D
:100FD000C4F824806785608D20852D48E0622B460B
:100FE0004A465146204601F071FA90B9206841699D
:100FF0008069009036E02A464946204601F059FBB8
:1010000050B1206C042804D12068016841F40071BB
:1010100001600120BDE8F88F606A216800780861EE
:10102000606A401C6062618D491E6185218D491E88
:1010300089B2218522685369DB435B070BD451B128
:1010400000781061606A401C6062608D401E60859F
:10105000208D401E20852A464946204601F084FA0C
:101060000028CED1208D0028C5D154F83D0B016851
:1010700041F400710160202004F81E09E6776677CC
:101080000020C7E7FFE70220C4E7000002001000CD
:101090000000FFFF10B586B0002100910191029180
:1010A000039100681349884222D1134CA06940F093
:1010B0000800A061A069694600F0080004904FF4A0
:1010C0004070009012200190032003900B48FFF71E
:1010D00087FD0B48416841F0E06141F00201416049
:1010E000E06940F40010E061E06900F40010049051
:1010F00006B010BD0054004000100240000C01403A
:101100000000014002488168027811448160704704
:1011100080000020074810B5016841F0100101600F
:10112000032000F075F8002000F006F800F024F825
:10113000002010BD0020024070B50D4D04464FF454
:101140007A712878B1FBF0F00A490968B1FBF0F038
:1011500000F0ECFA48B9102C07D200222146501EAC
:1011600000F036F800206C6070BD012070BD0000FA
:10117000800000208C0000200C4808B5816941F0F7
:1011800001018161816901F001010091C16941F0B2
:101190008051C161C06900F08050009004484168EE
:1011A00021F0E06141F08061416008BD0010024023
:1011B00000000140002809DB00F01F0201219140DE
:1011C0004009800000F1E020C0F8001170470000E5
:1011D000F0B40E4B1B680C46C3F30223C3F10705A2
:1011E000042D00D90425191D072901D2002300E090
:1011F000DB1E012606FA05F1491E214099409E405A
:10120000761E16403143F0BC02F048BC0CED00E005
:10121000064900F0070208684FF6FF03184040EA4D
:101220000220034A10430860704700000CED00E004
:101230000000FA052DE9F0470F46050061D0434E46
:10124000306800F00700B84209D2306820F007008B
:1012500038433060306800F00700B84251D1286848
:101260003B4C810712D5400703D5606840F4E0602D
:1012700060602878000703D5606840F460506060C3
:101280006068A96820F0F000084360602878C00713
:1012900028D06868012810D02168022810D089075A
:1012A00000292EDA616821F0030101436160FFF734
:1012B00091FD804641F288390DE021688903EFE70E
:1012C0008901EDE7FFF786FDA0EB0801494502D94A
:1012D0000320BDE8F0876068696800F00C00B0EB9F
:1012E000810FEFD1306800F00700B8420BD93068A9
:1012F00020F0070038433060306800F00700B84243
:1013000001D00120E5E72878400705D56068E96845
:1013100020F4E060084360602878000706D5606824
:10132000296920F4605040EAC100606000F038F89C
:101330006168084AC1F30311515CC840064908605E
:1013400006480068FFF7F8FE0020C2E700200240D0
:1013500000100240F27A00088C0000208400002077
:101360000448054900684968044AC1F30221515CF8
:10137000C84070478C00002000100240027B00082B
:101380000448054900684968044AC1F3C221515C18
:10139000C84070478C00002000100240027B00080B
:1013A00012A185B00FC98DE80F0014A0144A00687F
:1013B00004905168134801F00C03042B10D0082B43
:1013C0000ED1C1F38343C9031DF803000AD5516848
:1013D00004AAC1F34041515C0A4A5043B0FBF1F00A
:1013E00005B0704708494843FAE7000002030405C6
:1013F000060708090A0B0C0D0E0F10100102000061
:101400000010024000127A0000093D002DE9F84F5B
:10141000040070D02078C04DC00749D06868C0F380
:101420008100012807D06868C0F38100022809D133
:101430006868C00306D52868800339D5606800282D
:10144000E7D035E06068B0F5803F0BD010B1B0F563
:10145000A02F11D0286820F480302860286820F45C
:10146000802002E0286840F480302860606890B1F5
:10147000FFF7B0FC06460AE0286840F480202860A8
:10148000F0E700BFFFF7A6FC801B642873D828682C
:101490008003F7D50CE0FFF79DFC064605E000BF92
:1014A000FFF798FC801B6428F0D828688003F7D4E5
:1014B00020789A4E80074FF001094FF0000839D587
:1014C000686810F00C0F07D06868C0F3810002282C
:1014D00009D16868C00306D42868800714D520693C
:1014E000012808D110E02069B0B1C6F80090FFF7DC
:1014F00071FC074605E00AE1FFF76CFCC01B0228FF
:10150000C4D828688007F7D52868616920F0F800FA
:1015100040EAC10028600DE0C6F80080FFF75AFCE1
:10152000074604E0FFF756FCC01B022823D82868B2
:101530008007F7D4207800072CD57948A169D9B164
:10154000C0F80090FFF746FC074604E0FFF742FCB6
:10155000C01B02280FD8686A8007F7D571484FF47E
:10156000FA510068B0FBF1F0009000BF0098411EF6
:101570000091FAD20EE080E0C0F80080FFF72AFC6C
:10158000074604E0FFF726FCC01B022875D8686AEE
:101590008007F7D42078400760D5E8690027C000AD
:1015A00008D4E86940F08050E861E869012700F05C
:1015B000805000905C480168C90513D401688346D7
:1015C00041F480710160FFF705FC824606E000BF30
:1015D000FFF700FCA0EB0A0064284ED8DBF80000FF
:1015E000C005F5D5E06801280AD008B1052813D058
:1015F000286A20F001002862286A20F0040002E036
:10160000286A40F001002862E06841F2883B98B106
:10161000FFF7E0FB82460BE0286A40F004002862F6
:10162000EEE700BFFFF7D6FBA0EB0A0159455AD8F9
:10163000286A8007F6D50CE0FFF7CCFB824605E070
:10164000FFF7C8FBA0EB0A0159454CD8286A800770
:10165000F6D41FB1E86920F08050E861E06988B3F2
:101660006968C1F38101022944D00228C6F860806C
:1016700004D0FFF7AFFB044638E034E0FFF7AAFBE5
:10168000074604E0FFF7A6FBC01B02282BD82868FA
:101690008001F7D4206AB0F5803F05D16868A16861
:1016A00020F4003008436860D4E908010843696801
:1016B00021F4741108436860C6F86090FFF78AFB54
:1016C000044606E025E000BFFFF784FB001B02286C
:1016D00009D828688001F7D51BE000BFFFF77AFB27
:1016E000001B022802D90320BDE8F88F286880017A
:1016F000F4D40EE00128F7D06868226A00F4803143
:10170000914204D1616A00F47010884201D0012036
:10171000EAE70020E8E70000001002400000424233
:10172000800442428C0000200070004010B5401E32
:10173000B0F1807F01D3012010BD4FF0E024606143
:101740000F21601702F0AAF90020A0610720206194
:10175000002010BD7047704710B590F83C20012A5A
:1017600022D0012280F83C20CA688C6822F44072A2
:1017700022434C6822F4806222430C6822F4006207
:1017800022430C6922F4805222434C6922F4005215
:101790002243C969002322F480420A4301684A6453
:1017A00080F83C30002010BD022010BD70B590F8CC
:1017B0003C20012A26D0012480F83C40022280F8F7
:1017C0003D2003685A689D6822F070060A6832431B
:1017D0005A600D4B02689A4208D0B2F1804F05D092
:1017E0000A4B9A4202D00A4B9A4204D1496825F02A
:1017F00080031943916080F83D40002180F83C103F
:10180000084670BD022070BD002C0140000400405D
:101810000008004010B5040003D094F83D0010B15A
:1018200007E0012010BD002084F83C00204600F0B5
:101830001FF8022084F83D00211D206801F0AAFE57
:10184000012084F8460084F83E0084F83F0084F8C4
:10185000400084F8410084F8420084F8430084F892
:10186000440084F8450084F83D00002010BD0000CD
:1018700008B5114A01681148914208D1816941F4C3
:1018800000618161806900F40060009008BD0C4A2D
:101890009142FBD1C16941F00201C161C0690022DE
:1018A00000F00200009011461D20FFF791FCBDE8FA
:1018B00008401D20FFF77EBC002C014000100240B4
:1018C0000004004090F83D10012901D0012070472C
:1018D000022180F83D100168CA6842F00102CA6026
:1018E00000680B49884208D0B0F1804F05D0094903
:1018F000884202D00849884204D1816801F007017A
:10190000062903D0016841F0010101600020704701
:10191000002C0140000400400008004070B504465F
:1019200090F83C00012817D0012584F83C50022093
:1019300084F83D002068826822F0770222F47F421A
:1019400082600868502830D00DDC20284DD005DC9E
:1019500098B310283BD148E0022070BD302844D015
:10196000402834D139E0602828D0702806D0B0F55E
:10197000805F2CD0B0F5005F29D10AE0CB68D1E9B7
:101980000121206801F049FE2068816841F077015B
:1019900009E0CB68D1E90121206801F03EFE206812
:1019A000816841F48041816011E0CA68496820681B
:1019B00001F0E8FE5021206807E016E0CA68496897
:1019C000206801F0F0FE6021206801F030FE84F80C
:1019D0003D50002084F83C0070BDCA68496820680A
:1019E00001F0D0FE40212068EFE722680146104652
:1019F000EBE72DE9F0410D46040003D094F83D00DB
:101A000018B108E00120BDE8F081002084F83C0016
:101A1000204600F041F8022084F83D0020688168EB
:101A200044F2070291438160211D206801F0B2FD5C
:101A3000226890689169166A2B68AF69034340F287
:101A40000330814341EA0721A868EF6908434FF654
:101A5000FC418843E96840EA0720014328692F6A6E
:101A6000000140EA0730084369686D6926F02206E4
:101A700046EA0515294393602268906154F8460BA5
:101A80000162012004F81F09E0752076E0762077D6
:101A9000A0750020B7E7000000B585B000210091D7
:101AA00001910291039101681A48B1F1804F1BD056
:101AB000194A914216D1C16941F00401C161C1695D
:101AC00001F004010491816941F00801816180699C
:101AD000694600F008000490C02000900F4800BF45
:101AE000FFF77EF805B000BDC16941F00101C16199
:101AF000C16901F001010491816941F00401816132
:101B00008069694600F004000490032000900448B6
:101B1000E6E700000010024000080040000C014011
:101B20000008014070B590F83E60044690F83F50C0
:101B300090F8423090F84320022021B104290ED0C1
:101B4000012E1BD114E0012E18D1012B16D184F8DF
:101B50003E0084F8420001220021206820E0012D8F
:101B60000CD1012A0AD184F83F0084F8430014E024
:101B7000012D03D1012B01D1012A01D0012070BD1B
:101B800084F83E0084F83F0084F8420084F8430063
:101B900001220021206801F033FD01220421206888
:101BA00001F02EFD2068016841F001010160002074
:101BB00070BD704770B50446006801694FF00005BC
:101BC000C943890715D4C168C943890711D4E91EDF
:101BD000016101202077206880698007204602D0BB
:101BE000FFF7E7FF04E000F0BFF8204600F04EF9F1
:101BF000257720680169C943490717D4C168C943DB
:101C0000490713D46FF00401016102202077206896
:101C1000806910F4407F204602D0FFF7CAFF04E03D
:101C200000F0A2F8204600F031F92577206801691C
:101C3000C943090716D4C168C943090712D46FF014
:101C400008010161042020772068C06980072046D0
:101C500002D0FFF7AEFF04E000F086F8204600F067
:101C600015F9257720680169C943C90617D4C168E9
:101C7000C943C90613D46FF0100101610820207711
:101C80002068C06910F4407F204602D0FFF791FF22
:101C900004E000F069F8204600F0F8F825772068A5
:101CA0000169C943C90708D1C168C943C90704D13B
:101CB000891E0161204600F039F920680169C94395
:101CC000090609D4C168C943090605D46FF080012B
:101CD00001612046FFF73EFD20680169C9434906BE
:101CE00009D4C168C943490605D46FF040010161B8
:101CF000204600F071F920680169C94389060BD4B8
:101D0000C168C943890607D46FF0200101612046EC
:101D1000BDE87040FFF71FBD70BD000000B585B085
:101D20000021009101910291039100680B498842C2
:101D300012D10B48816941F00401816180696946D3
:101D400000F0040004904FF4106000900220019015
:101D500003900448FEF744FF05B000BD002C01408D
:101D60000010024000080140704770B5044690F82A
:101D70003C000D4601280AD0012084F83C0042B105
:101D8000042A18D0082A2AD00C2A4DD139E0022082
:101D900070BD206801F054FC2068816941F00801A1
:101DA00081612068816921F0040181612068816975
:101DB0002A69114311E0206801F06AFC20688169FA
:101DC00041F4006181612068816921F48061816151
:101DD000206881692A6941EA0221816124E0206842
:101DE00001F082FC2068C16941F00801C1612068EE
:101DF000C16921F00401C1612068C1692A691143E8
:101E000011E0206801F09CFC2068C16941F4006188
:101E1000C1612068C16921F48061C1612068C16924
:101E20002A6941EA0221C161002084F83C0070BDAA
:101E300010B5040003D094F83D0010B107E0012074
:101E400010BD002084F83C00204600F01EF802205F
:101E500084F83D00211D206801F09CFB012084F8DE
:101E6000460084F83E0084F83F0084F8400084F87F
:101E7000410084F8420084F8430084F8440084F868
:101E8000450084F83D00002010BD704770470000F9
:101E900010B50446022249B104290ED0082913D0F6
:101EA00094F84100012816D0012010BD94F83E009E
:101EB0000128F9D184F83E200FE094F83F00012872
:101EC000F2D184F83F2008E094F840000128EBD1DB
:101ED00084F8402001E084F841200122206801F0CC
:101EE0008FFB0F492068884203D1426C42F40042C4
:101EF00042642068884208D0B0F1804F05D009497B
:101F0000884202D00849884204D1816801F0070163
:101F1000062903D0016841F001010160002010BDD5
:101F2000002C0140000400400008004010B520498A
:101F300088423CD11F4A111F081F03F0C3FD1D4AF0
:101F40001C3A911E881E00F0E1FD1A4A163A911EB5
:101F5000881E00F0F4FD174C283C206AFEF7D9FBE0
:101F600002460B4614A001F063FD022001F080FA46
:101F70004042E062042001F07BFA2063024610A098
:101F8000E16A01F055FDB4F91000FEF787FB024647
:101F9000D4E9071002F0A6FD60636061A06100F063
:101FA00099FDD4E90501BDE8104001F07DBA10BDEE
:101FB00020060020700000200A0D25660D0A000092
:101FC0000A0D656E63313A2025642C20656E6332FC
:101FD0003A2025640D0A00007047704770470000E2
:101FE000F8B5026804461068D168536910F00F0F05
:101FF0004FF0000554D003F0010601F49077374309
:102000005FD0C20705D0CA0503D5226C42F0010299
:102010002264420705D5DA0703D0226C42F002029F
:102020002264820705D5DA0703D0226C42F004024D
:102030002264020707D501F02002324303D0226C4C
:1020400042F008022264226C002A35D0800604D5B2
:10205000880602D5204601F0D8FB20684069216C33
:10206000C0F3801001F008010143204625D001F0A3
:10207000B4FB2068416949061BD5416921F0400144
:102080004161A06BA8B158494163A06BFEF74AFDBE
:10209000002811D0A06B416B01B0BDE8F0400847AB
:1020A00083060ED58B060CD52046BDE8F84001F01E
:1020B000ACBB2046FFF792FFF8BDFFF78FFF25640A
:1020C000F8BD266B2023012E52D1C60650D5CE0670
:1020D0004ED5106850680090506940062AD5A16B13
:1020E000086840680004000CEAD0A68D8642E7D953
:1020F000E0858869202818D0D06820F48070D060EE
:102100002068416921F0010141612068416921F0A5
:102110004001416184F83E3025632068C16821F0A8
:102120001001C160A06BFEF7D9FCA08DE18D401AB3
:1021300081B219E0A08DE18D401A81B2E08D0028B6
:10214000BED00029BCD0D06820F49070D060206848
:10215000426922F00102426184F83E302563206822
:10216000C26822F01002C2602046FFF736FFF8BDB9
:1021700005062BD50D0629D594F83D002128F6D16A
:10218000A068B0F5805F01D12069B0B1206A411C20
:102190002162216800784860E08C401E0004000C39
:1021A000E084E4D12068C16821F08001C16020682A
:1021B000C16841F04001C160F8BD206A0088C0F3E9
:1021C00008005060206A801C2062E5E74006F3D5D5
:1021D0004806F1D5D168204621F04001D16084F84D
:1021E0003D3000F05AF9F8BDCB37000870B5040057
:1021F00004D094F83D00002510B106E0012070BD28
:1022000084F83C50204600F023F8242084F83D0058
:102210002068C16821F40051C160204601F050FBE4
:102220002068016921F4904101612068416921F031
:102230002A0141612068C16841F40051C1602564F0
:10224000202084F83D0084F83E00002070BD00008E
:1022500070B586B0002400940194029403942E4E2D
:1022600003682E49022003222D4DB34226D18B69EB
:1022700043F480438B618B6903F4804304938B693F
:1022800043F004038B618969039201F00401049116
:102290000102CDE9001069462846FEF7A1FC281589
:1022A000CDE90004694628460294FEF799FC002215
:1022B00002212520FEF78CFF252028E0194EB3428D
:1022C00027D1CB6943F40033CB61CB6903F40033EE
:1022D00004938B6943F004038B618969039201F0D5
:1022E000040104910421CDE9001069462846FEF757
:1022F00077FC0820CDE90004694628460294FEF7E1
:102300006FFC002202212620FEF762FF2620FEF746
:1023100051FF06B070BD00000038014000100240BF
:10232000000801400044004090F83E30202B0ED1C0
:1023300059B152B190F83C30012B08D0012380F8FC
:102340003C300023036301F017BB012070470220DB
:1023500070470000F0B421480126074645783978D7
:102360001F4C4A1CD3B2FA79ADB1012D17D0022D02
:102370001ED0032D1AD104EB410131F8021C5B2958
:1023800014D10021817001704170F0BC0122C11D87
:102390001448FFF7C9BF2C2A08D1467003E0122A5F
:1023A00004D10225457024F811200370F0BC704759
:1023B00024F8112003700A2B01D25B2AF6D10321E5
:1023C000417004EB4301867011F80A2DC2708A78BF
:1023D00002710A79427189798171E7E7480000202A
:1023E00028050020F40600202DE9F843044690F863
:1023F0003D001F4616460D4620284CD1C5B1BEB142
:1024000094F83C00012846D0012084F83C004FF0AD
:102410000008C4F84080212084F83D00FEF7DAFC73
:10242000A6848146E684A068B0F5805F03D004E00E
:102430000120BDE8F883206928B12E465FF0000531
:1024400084F83C800EE00026FAE78021204601F067
:10245000AEFAA0B9AEB116F8010B21684860E08C65
:10246000401EE084E08C4B464FF0000200970028AD
:10247000EBD14FF04001204601F099FA30B1032032
:10248000D7E735F8020BC0F30800E6E7202084F810
:102490003D000020CDE70220CBE77047FEE7016852
:1024A0004A69D24352050FD46FF480624A61002119
:1024B00040F8301F202242738173026942F0040207
:1024C000026101730120704700207047F8B504468F
:1024D000C06A1E460D461746082807D0012805D0B9
:1024E00010F5803F02D0206B122804D120680168CB
:1024F00041F480710160134600224FF00111204623
:10250000009600F057F840B120680068C00502D579
:102510004FF4007020640320F8BD2069B0F5804FAF
:102520000ED00620216800EAD51040F0F0000861C6
:1025300033463A460B49204600F070F878B902E07D
:1025400005F0FE0000E0E8B2216808610549334665
:102550003A46891F204600F061F80028DCD00120AF
:10256000F8BD00000800010070B516460D4604468F
:102570000DE02046FFF793FF08B1012070BD681CF5
:1025800005D0FEF727FC801BA84207D835B120688C
:102590004069C0434007ECD4002070BD002044F8DF
:1025A000300F20216173A073216941F02001216166
:1025B0002073E2E72DE9F0471E4690460D4604469B
:1025C000C1F30747DDF8209008E0701C06D0FEF745
:1025D00001FCA0EB0900B0420FD876B12068012FB2
:1025E00018D0806925EA00000004000C14D00021F6
:1025F0004145EAD00020BDE8F087002044F8300FC4
:1026000020216173A073216941F0200121612073B1
:102610000120F0E74069E5E70121E9E72DE9F0470E
:102620009A4691460E46044600254FF02008C1F315
:10263000074725E020684069C043400514D420685E
:10264000016841F40071016021686FF480604861A5
:10265000256384F83D8084F83E50206C40F00400EF
:10266000206484F83C501FE0B9F1FF3F08D0FEF72A
:10267000B1FBA0EB0A0149450CD8B9F1000F09D014
:102680002068012F13D0806926EA00000004000CA6
:102690000BD0CFE744F8305F84F80D80A573206934
:1026A00040F02000206125730120BDE8F0874069DB
:1026B000EAE770B516460D4604460DE02046FFF7E2
:1026C000EEFE08B1012070BD681C05D0FEF782FB4C
:1026D000801BA84207D835B120684069C043000676
:1026E000ECD4002070BD002044F8300F202161732D
:1026F000A073216941F0200121612073E2E700000D
:1027000010B50E4C002208212046FEF75EFB00F0BB
:1027100017F8012210212046FEF757FB00F010F8B1
:10272000002210212046FEF750FB00F009F8204659
:102730000122BDE810400821FEF747BB000C014014
:102740000020401CC0B20A28FBD370470C4800B5DB
:10275000816985B041F0080181618069694600F0B6
:10276000080004901820009003200390112001908D
:102770000448FEF735FA00F09DF805B000BD0000F2
:1027800000100240000C014010B50C4C0122082141
:102790002046FEF71AFBFFF7D3FF01221021204647
:1027A000FEF713FBFFF7CCFF002210212046FEF7B7
:1027B0000CFBBDE81040FFF7C3BF0000000C014058
:1027C0002DE9F0410024134E074625466006040E0D
:1027D000012210213046FEF7F8FAFFF7B1FF082179
:1027E0003046FEF7EDFA08B1641CE4B20022102175
:1027F0003046FEF7EAFAFFF7A3FF6D1CEDB2082D95
:10280000E4D327B1FFF77CFF2046BDE8F081FFF756
:10281000BBFFF9E7000C014070B5154E05460024DA
:10282000280601D5012200E0002208213046FEF7EB
:10283000CCFAFFF785FF012210213046FEF7C5FADA
:10284000FFF77EFF002210213046FEF7BEFA072C6C
:1028500004D1012208213046FEF7B7FA6806050EBA
:10286000FFF76EFF641CE4B2082CD9D370BD0000E2
:10287000000C014010B50E4C012208212046FEF745
:10288000A4FA012210212046FEF79FFAFFF758FF15
:10289000002208212046FEF798FAFFF751FF002298
:1028A00010212046FEF791FABDE81040FFF748BF1F
:1028B000000C014010B50A4C002208212046FEF70A
:1028C00084FA012210212046FEF77FFAFFF738FF35
:1028D00020460122BDE810400821FEF776BA00002C
:1028E000000C014070B5104D012208212846FEF76A
:1028F0006CFAFFF725FF012210212846FEF765FA42
:10290000FFF71EFF08212846FEF75AFA08B10124F6
:1029100000E00024002210212846FEF756FAFFF7B7
:102920000FFF204670BD0000000C0140044908B5AF
:102930008A6902438A6189690140009108BD0000EB
:102940000010024030B5264A002405790168131FA3
:1029500085B371B345798DB1012D17D0022D18D0F3
:10296000012483792BB31E4908310A1F012B18D08B
:10297000022B20D0032B22D0012428E015688D43A0
:10298000156001681A680A431A60EAE71D688D43FA
:1029900001E01D680D431D60016813680B4313605F
:1029A000DFE703680D689D430D600068116801430F
:1029B00011600CE00DE0036815689D4302E00368B8
:1029C00015681D43156000680A6802430A602046C6
:1029D00030BD1D688D431D60006811688143E7E7C5
:1029E00004040140F0B50A68C2F30F2595FAA5F278
:1029F000B2FA82F369E001229A402A4264D0082B9D
:102A000003D240F201129A4006E0A3F108024FF00F
:102A10000114944044F080624C68082C0BD10C697E
:102A2000C668170A97FAA7F7B7FA87F726EA1226B1
:102A3000BC402643C66092FAA2F700EB1264B7FAD4
:102A400087F74FEA870C0F27266807FA0CF7BE4373
:102A500092FAA2F7D1F804E0B7FA87F7BF000EFAAE
:102A600007FE46EA0E0626604F68012F01D0092FA7
:102A70002AD192FAA2F7B7FA87F74FEA870C032711
:102A800007FA0CF7BE4392FAA2F7B7FA87F7D1F824
:102A900008E0BF000EFA07FE92FAA2FC46EA0E0614
:102AA000BCFA8CFC4FEA8C0E4FF0040C26600CFA3A
:102AB0000EFC92FAA2F2B2FA82F2CF68920026EAF3
:102AC0000C0697403E4326605B1C35FA03F292D118
:102AD0000020F0BD0A4A0B49136848428B4201DAD4
:102AE000116002E0834200DD1060074A13688B42E8
:102AF00001DA116070478342FCDD1060704700000E
:102B00005C000020A8E4FFFF600000207CB51446B4
:102B10000D4606466B4606223B21682000F080F8F1
:102B200000280BD1BDF8001049BA3180BDF8021061
:102B300049BA2980BDF8041049BA21807CBD7CB512
:102B400014460D4606466B4606224321682000F0D7
:102B500067F800280BD1BDF8001049BA3180BDF8E4
:102B6000021049BA2980BDF8041049BA21807CBD01
:102B700010B5FFF7EBFD80216B2000F0C0F864205A
:102B8000FEF71CF800216B2000F0B9F8032000F0DC
:102B900082F8002000F07AF8322000F099F8002145
:102BA000382000F0ACF800216A2000F0A8F80021DD
:102BB000232000F0A4F88021372000F0A0F8752031
:102BC00000F011F8682801D0012010BD01216B2010
:102BD00000F095F800216C2000F091F8322000F010
:102BE00077F8002010BD10B50446FFF743FED02053
:102BF000FFF712FEFFF776FE2046FFF70DFEFFF708
:102C000071FEFFF737FED120FFF706FEFFF76AFEE1
:102C10000020FFF7D5FD0446FFF74CFE204610BD0F
:102C20002DE9F0411D4614460F460646FFF722FEE9
:102C30007006000EFFF7F0FDFFF754FE20B1FFF71E
:102C400039FE0120BDE8F0813846FFF7E5FDFFF7CA
:102C500049FEFFF70FFE012000EB4600C0B2FFF770
:102C6000DBFDFFF73FFE09E0012C0DD05FF0010016
:102C7000FFF7A6FD641E05F8010BE4B2002CF3D1AA
:102C8000FFF718FE0020DDE70020F1E7C006010E87
:102C90001C2000F034B8C006010E1B2000F02FB835
:102CA000BC2801D3012110E0622801D302210CE0ED
:102CB0002A2801D3032108E0142801D3042104E0C9
:102CC0000A2801D3052100E006211A2000F017B8D8
:102CD00010B504464FF47A70844201D9044602E0EC
:102CE000042C00D20424B0FBF4F0401EC1B2192021
:102CF00000F005F86008BDE81040FFF7D1BF70B5DF
:102D00000C460546FFF7B6FDD020FFF785FDFFF71F
:102D1000E9FD50B92846FFF77FFDFFF7E3FD2046A8
:102D2000FFF77AFDFFF7DEFD18B1FFF7C3FD0120C5
:102D300070BDFFF7BFFD002070BD2DE9F0411E46BC
:102D400015460F460446FFF795FD6006000EFFF797
:102D500063FDFFF7C7FD60B93846FFF75DFDFFF77C
:102D6000C1FD00240CE0305DFFF756FDFFF7BAFD12
:102D700020B1FFF79FFD0120BDE8F081641CE4B2A3
:102D8000AC42F0D3FFF796FD0020F5E72DE9F041C6
:102D900088B000240594142168460694FDF70AFAC9
:102DA0001020FFF7C3FD2020FFF7C0FD0420FFF730
:102DB000BDFD0820FFF7BAFD364835494FF4804283
:102DC0004261364EDFF8D0804FF210027261012569
:102DD000022703948DE8A2006946FFF703FECDE9C0
:102DE0000274CDE9008569463046FFF7FBFD2C48AB
:102DF0008168F02292FAA2F2B2FA82F221F0F00196
:102E000005FA02F2114381608DF818504FF0200846
:102E10008DF81940CDF814808DF81A7005A8FFF7C9
:102E200091FDF06842F2200198FAA8F2B2FA82F21B
:102E300020F0200095402843F06091FAA1F3B3FA06
:102E400083F39D000F23AB4091FAA1F13268B1FAF0
:102E500081F1082089009A4388400243114832607A
:102E60000068C0F30220011D072901D2002000E004
:102E7000C01E0D498440200181F800044FF0E0217C
:102E80004FF40000C1F8000108B0BDE8F081000077
:102E90004000400400100140F010F004000C01401C
:102EA000040001400CED00E017E000E00D4810B513
:102EB0000B4901600C49416000214FF48042816060
:102EC000C0E9031241618161C1610162FDF788FFC0
:102ED000002803D0BDE81040FDF7FEBD10BD000086
:102EE000005400403C050020801A060010B596B042
:102EF00000240F9410941194129413941C2168468A
:102F00001494FDF757F9202107A8FDF753F92C4831
:102F10002A49C0E9001441F61F41C0E9024180215D
:102F20000461C0E90541FEF775FC08B1FDF7D4FD69
:102F30004FF480500F900FA92148FEF7EFFC08B125
:102F4000FDF7CAFD1E48FEF773FF08B1FDF7C4FD8B
:102F5000139413A91A481494FEF728FC08B1FDF73E
:102F6000BBFD6020CDE90004029403940494059411
:102F70000022694612480694FEF7F7FE08B1FDF7F5
:102F8000ABFD0C2269460E48FEF7EFFE08B1FDF7D7
:102F9000A3FD0794089409944FF400500A94CDE9D6
:102FA0000B4007A906480E94FEF7D6FB08B1FDF7C3
:102FB00093FD0348FEF7B2FE16B010BD002C014091
:102FC0009005002010B58CB024216846FDF7F2F87A
:102FD0000024164809944FF080410A9401600321AF
:102FE000C0E901144FF6FF72C0E903248461009127
:102FF0000120CDE901400F21CDE90341CDE9054094
:10300000CDE9074169460948FEF7F3FC08B1FDF731
:1030100063FD099409A905480A94FEF7C7FB002837
:1030200001D0FDF759FD0CB010BD0000D8050020FF
:1030300010B586B0002417480094019402940394BC
:10304000049413490594016041F61F41C0E901143D
:103050006321C0E9031480218161FEF7DBFB08B125
:10306000FDF73AFD4FF48050009069460948FEF79D
:1030700055FC08B1FDF730FD049404A905480594FA
:10308000FEF794FB002801D0FDF726FD06B010BD29
:10309000000400402006002010B58CB024216846B2
:1030A000FDF788F800241648099414490A94016031
:1030B0000321C0E901144FF6FF72C0E903248461C3
:1030C00000910120CDE901400F21CDE90341CDE977
:1030D0000540CDE9074169460948FEF78AFC08B179
:1030E000FDF7FAFC099409A905480A94FEF75EFB6E
:1030F000002801D0FDF7F0FC0CB010BD0008004026
:10310000680600200C4810B50A4901604FF4E1310F
:103110004160002181600C22C160C0E9041281611C
:10312000C161FFF763F8002803D0BDE81040FDF748
:10313000D3BC10BD00380140B00600200C4810B5CB
:103140000A4901604FF4E1314160002181600C22A5
:10315000C160C0E904128161C161FFF747F800282E
:1031600003D0BDE81040FDF7B7BC10BD00440040DF
:10317000F4060020FEE7000010B50D4C00224FF4CD
:1031800080512046FDF721FE002261142046FDF704
:103190001CFE00224FF480412046FDF716FE20461B
:1031A000BDE8104000224FF40041FDF70EBE0000C4
:1031B000000C0140FEE7000070B5802817D20029FE
:1031C00015DB3F2913DCCB1701EB5375C5F3C703A0
:1031D00025F007050124094E491B8C4006EBC00071
:1031E000012A05D0C15C022A05D0A143C15470BD9B
:1031F000C15C2143FAE76140F8E7000018010020B4
:1032000010B50021AE2003F071FB0021202003F057
:103210006DFB0021102003F069FB0021B02003F0BA
:1032200065FB0021C82003F061FB0021084603F084
:103230005DFB0021102003F059FB0021402003F02A
:1032400055FB0021812003F051FB0021FF2003F0FA
:103250004DFB0021A12003F049FB0021A62003F033
:1032600045FB0021A82003F041FB00213F2003F093
:103270003DFB0021A42003F039FB0021D32003F003
:1032800035FB0021084603F031FB0021D52003F077
:103290002DFB0021F02003F029FB0021D92003F0B1
:1032A00025FB0021222003F021FB0021DA2003F07E
:1032B0001DFB0021122003F019FB0021DB2003F08D
:1032C00015FB0021202003F011FB00218D2003F0CD
:1032D0000DFB0021142003F009FB0021BDE8104084
:1032E000AF2003F003BB0000F0B500210D4BFF261B
:1032F0000C46002201280FD003EBC20580B16F5CA1
:10330000C7F1FF076F54521CD2B2802AF2D3491C76
:10331000C9B20829EDD3F0BD03EBC2056E54F2E744
:103320006C54F0E7180100200FB4042870B50C4667
:10333000054613D8142C11D80A4E07AA0A48326041
:10334000069900F085FBC4F11501074A0020C9B2B7
:10335000306050542146284600F072F870BC5DF889
:1033600014FB0000040000209800002070B50B4EF4
:1033700000242146002000F013F8002506EBC500CC
:103380000121005D03F0B2FA6D1CEDB2802DF5D382
:10339000641CE4B2082CECD370BD000018010020BE
:1033A00010B50446B031C8B2002103F09FFA1020D6
:1033B00040EA1410002103F099FA04F00F00BDE870
:1033C0001040002103F092BA2DE9F04F01EB4101CA
:1033D00000EB400049068006040E203A4FEA1169CE
:1033E000D0B2164900EB4000A046002501EB800B4F
:1033F00000261BF805704FFA89FA380601D501221C
:1034000000E0002261B25046FFF7D6FE7806641C49
:10341000070EE4B2A4EB08000C2809D0761CF6B223
:10342000082EEAD36D1CEDB20C2DE1D3BDE8F08F70
:1034300009F10100444600F0FF09F3E7386A00088B
:10344000F0B517460C46064600250CE021463046EE
:10345000FFF7BAFF641CE4B2142C02D90024761CD6
:10346000F6B26D1CEDB27A5D002AEFD1F0BD704767
:103470000021022805D0032809D0042809D0002003
:1034800070474FF08042506A516200B27047034A61
:1034900000E0034A1068116000B270472404004045
:1034A00024080040704700002DE9F0410D461B4CF8
:1034B00006004FF400414FF4804705D50122204615
:1034C000FDF783FC002204E000222046FDF77DFC8E
:1034D000012239462046FDF778FC304603F002FA17
:1034E0000F49086049144E10002D05DA00222046CD
:1034F000FDF76BFC012204E001222046FDF765FC8C
:10350000002231462046FDF760FC284603F0EAF928
:1035100003490C310860BDE8F0810000000C014057
:10352000342C0140FDF7EEBD30B58FB02821684640
:10353000FCF740FE14210AA8FCF73CFE0121080418
:10354000CDE900100024029402250491CDE9075032
:103550004FF4E01009906846FDF758FF08B172B6C5
:10356000FEE70F20CDE90A054FF48060CDE90C405D
:1035700002210AA80E94FDF75DFE002801D072B664
:10358000FEE70FB030BD70470148FEF713BB0000E7
:1035900020060020F0B50268164B174C174D4FF06F
:1035A0008047984205D0B84203D0A04201D0A8423B
:1035B00003D122F070064A683243984205D0B842DF
:1035C00003D0A04201D0A84203D122F44074CA68BB
:1035D00022434C6922F08002224302608A68C26260
:1035E0000A688262984201D109690163012141613F
:1035F000F0BD0000002C0140000400400008004025
:1036000010B501F01F030121046A99408C43046244
:10361000016A9A401143016210BD10B5846842EA04
:10362000032224F47F440A432243826010BD82684F
:1036300022F070020A4342F00701816070470000E7
:1036400030B5026A22F001020262026A43688469AC
:1036500024F073050C682C4322F002058A682A4383
:103660000A4DA8420BD122F00805CA6823F4407322
:103670002A434D6922F004021D438B692B434360AA
:10368000846149684163026230BD0000002C014042
:1036900030B5026A22F010020262026A436884694D
:1036A0000D6824F4E64444EA05248D6822F02002E3
:1036B00042EA05120B4DA8420ED1CD6822F08002DD
:1036C00042EA05124D6923F4406343EA85038D699C
:1036D00022F0400243EA85034360846149688163C4
:1036E000026230BD002C014030B5026A22F48072C3
:1036F0000262036A4268C46923F4007324F073050C
:103700000C682C438D6843EA05230C4DA8420ED16A
:10371000CD6823F4006343EA05234D6922F4405247
:1037200042EA05128D6923F4806342EA0512426081
:10373000C4614968C163036230BD0000002C0140D0
:1037400030B5026A22F480520262046A4268C36998
:103750000D6823F4E64343EA05238D6824F40054FE
:1037600044EA0534064DA84204D14D6922F4804252
:1037700042EA85124260C36149680164046230BD57
:10378000002C014010B5036A046A24F001040462AD
:10379000846924F0F00444EA021423F00A020A4384
:1037A0008461026210BD10B5036A23F01003036246
:1037B0008369046A23F4704343EA023224F0A003CD
:1037C00043EA01118261016210BD10B5406A002117
:1037D000C185C184FEF702FC10BD0168CA6822F4ED
:1037E0009072CA6001684A6922F001024A61016B65
:1037F000012904D10168CA6822F01002CA602021A0
:1038000080F83E1000210163704708B590F83E1023
:10381000222901D0022008BD82684FF480539A42C9
:1038200001D1016921B1816A9A421BD04AB10AE0F3
:103830000268816A5268C2F308020A80816A891CA0
:1038400008E0026972B10268526802F07F020A70F1
:10385000816A491C8162C18D491E0904090CC18518
:1038600003D019E002685268F1E70168CA6822F0E3
:103870002002CA600168CA6822F48072CA600168C6
:103880004A6922F001024A61202180F83E10016B52
:10389000012903D0FEF75EFD002008BD0021016371
:1038A0000168CA6822F01002CA6001680A68D2067C
:1038B00002D50A6849680091818DFEF78EFBEBE71F
:1038C00070B5044600680169E26821F44051114373
:1038D00001612169A0680843616908432168CA68D9
:1038E00041F20C639A430243CA6020684169A269AD
:1038F00021F44071114341611E492068884202D180
:10390000FDF73EFD01E0FDF72BFD00EBC00101EBF3
:103910000012606864218000B2FBF0F3B3FBF1F3A6
:103920006FF018067343B2FBF0F5B2FBF0F605EB4F
:103930008305322303EB0515B5FBF1F5B6FBF1F674
:1039400005F0F00505EB0615B2FBF0F6B2FBF0F062
:10395000B0FBF1F06FF01802504306EB800003EB70
:103960000010B0FBF1F0216800F00F0028448860DF
:1039700070BD00000038014081628285C28500214F
:103980000164222280F83E2080F83C100168CA6859
:1039900042F48072CA6001684A6942F001024A61D9
:1039A0000068C16841F02001C160002070472DE926
:1039B000F041984617460E460446069D1DE0681CD9
:1039C0001BD02DB1FDF706FAA0EB0800A84214D9D0
:1039D0002068C16821F4D071C1602068416921F07C
:1039E00001014161202084F83D0084F83E00002060
:1039F00084F83C000320BDE8F0812068006836EAC6
:103A0000000004D00020B842D9D00020F3E7012004
:103A1000F9E700000148FEF7E3BA0000B006002015
:103A20000148FEF7DDBA0000F4060020FEE70000C2
:103A30000FB4054B10B503A9044A029800F06EF9C3
:103A400010BC5DF814FB00004954000890000020F1
:103A500037B514460846064B6A46214600F05EF923
:103A600004466946002000F0F0FC20463EBD000000
:103A70004B440008490050EAC12018BF04204A0DF9
:103A800018BF40F0010040F2FF72B2EB515F08BF77
:103A900040F00200012808BF052070470907090E01
:103AA000002804DB00F1E02080F80014704700F0EB
:103AB0000F0000F1E02080F8141D70472DE9F0415F
:103AC0004F1E00EBC7010446D1E9000115461E4612
:103AD00037F006020DD02A463346FCF7FEFC7F1E67
:103AE00004EBC703D3E90023FCF750FC37F00602D0
:103AF000F1D1022F25D0042F13D0062F18BFBDE817
:103B0000F0812A463346FCF7E8FCD4E90A23FCF7A7
:103B10003DFC2A463346FCF7E0FCD4E90823FCF7D9
:103B200035FC2A463346FCF7D8FCD4E90623FCF7DB
:103B30002DFC2A463346FCF7D0FCD4E90423FCF7DD
:103B400025FC2A463346FCF7C8FCD4E90223FCF7DF
:103B50001DFC2A463346FCF7C0FCD4E90023BDE82F
:103B6000F041FCF713BC0122FCF7FEBEFCF70EBCD3
:103B70000022134610461146FCF721BD024A0020E0
:103B80001107FCF7F1BE000001FDFFFF02E008C8CD
:103B9000121F08C1002AFAD170477047002001E0C7
:103BA00001C1121F002AFBD17047000001490860C3
:103BB00070470000940000202DE9FF5FDDE902203E
:103BC000010DDDF838B0024318D044F61050A1F2D0
:103BD000FF3141430D140F98012820D0A5EB0B00B5
:103BE000401C5FEA000A4FF00004474EDFF81C91CA
:103BF000A046504616D5CAF1000728E00F980124C8
:103C000043A2012808D0002100980F9BC0E90021A1
:103C1000C0E90243BDE8FF9F6FEA0B01F4E7CBF177
:103C20000000DEE7074612E0F80707D022463346D9
:103C300040464946FCF751FC8046894622463346B9
:103C400010461946FCF749FC04460E467F10002F2B
:103C5000EAD1DDE90201BAF1000F42464B4602DA31
:103C6000FCF73BFC01E0FCF7AAFC04460E460022F0
:103C7000284BFCF7A9FE03D84FF0FF30014607E0C0
:103C80000022254B20463146FCF780FBFCF783FEE3
:103C9000102409E0002C0ADB0A220023FCF77EFD39
:103CA000019B30321A55641E50EA0102F2D1641CA5
:103CB000019AC4F1110314440F9A012A03D001227E
:103CC00008430DD10AE0084304D000204FF0110B47
:103CD0000F9080E7A3EB0B056D1E0DE05B4504DD47
:103CE0004FF0000205F1010504E003DA4FF0000295
:103CF000A5F10105002AECD000980F99C0E9023126
:103D0000C0E9004586E70000000024400000F03FC5
:103D1000300000000000F0430000E03F2DE9FF4FBD
:103D200095B09B468946064600250FE2252877D1A7
:103D300000242746F84A0121059400E0044316F8C0
:103D4000013F203B01FA03F01042F7D130782A28D6
:103D500011D06FF02F033078A0F13002092A16D865
:103D6000059A44F0020402EB820203EB4202104483
:103D7000761C0590EFE759F8042B0592002A03DA28
:103D8000504244F40054059044F00204761C30780C
:103D90002E2816D116F8010F44F004042A280DD05D
:103DA0006FF02F023078A0F13003092B09D807EB10
:103DB000870302EB4303C718761CF3E759F8047B2B
:103DC000761C30786C280FD006DC4C2817D0682879
:103DD0000DD06A2814D104E0742810D07A280FD1AD
:103DE0000DE044F400140AE044F4801401E044F4CB
:103DF00040147278824202D104F58014761C761C3D
:103E0000307866280BD013DC582877D009DC0028DE
:103E100075D04528F6D04628F4D047281AD19DE120
:103E200018E0632835D0642879D0652812D195E14F
:103E3000702873D008DC6728F1D069286FD06E280D
:103E40000DD06F2806D1B5E073282CD0752875D019
:103E5000782874D05A46179990476D1C75E1C4F3C1
:103E60000250022809D003280DD0D9F800100428E8
:103E70000DD00D6009F1040967E1D9F80010EA17C7
:103E8000C1E90052F6E7D9F800100D80F2E70D7095
:103E9000F0E719F8041B8DF8001000208DF80100E0
:103EA000EA46012003E059F804AB4FF0FF30610708
:103EB0004FF0000102D40DE008F101018846B9423B
:103EC0000FDA8045F8DB1AF808100029F4D108E071
:103ED00008F1010188468142FADB1AF8081000292E
:103EE000F6D105985B46A0EB080721463846179A9D
:103EF00000F094FA284400EB080507E04DE029E1C2
:103F00000DE01AF8010B5A4617999047B8F10108CD
:103F1000F7D25B4621463846179A13E142E00A225F
:103F20000092C4F302524FF0000A022A08D059F856
:103F300004CB032A4FEAEC710AD00DE029E02AE015
:103F400009F1070121F00702F2E802C1914609E0F8
:103F50000FFA8CFC4FEAEC71042A03D14FFA8CFC67
:103F60004FEAEC71002907DA0A460021DCF1000C67
:103F700061EB02012D2202E0220504D52B228DF8EF
:103F80000420012203E0E20701D02022F7E7904657
:103F900059E00A2102E010220DE010214FF0000A42
:103FA00000910BE010224FF0000A44F004040827AF
:103FB000009203E008224FF0000A0092C4F302527C
:103FC000022A05D059F804CB0021032A08D009E0C1
:103FD00009F1070121F00702F2E802C1914605E06C
:103FE0001FFA8CFC042A01D10CF0FF0C4FF00008E2
:103FF000220728D5702806D0009B83F0100353EACF
:104000000A0305D00EE040228DF80420012208E0CA
:104010005CEA010206D030228DF804208DF80500FC
:1040200002229046009B83F0080353EA0A030AD158
:104030005CEA010201D1620705D530228DF8042027
:104040004FF001087F1E582804D034A003900EA81A
:1040500002900DE036A0F9E753466046009AFCF75F
:104060009DFB84460398825C0298401E0290027079
:104070005CEA0100F0D1029806A9081A00F1200AB2
:10408000600702D524F4803400E00127574502DDA3
:10409000A7EB0A0000E0002000EB0A010090059861
:1040A0004144401A0590E00306D45B462146179A26
:1040B000059800F0B3F90544002706E001A85A4628
:1040C000C05D179990476D1C7F1C4745F6DBE003E8
:1040D0000CD55B462146179A059800F09FF90544D8
:1040E00004E030205A46179990476D1C0099481EED
:1040F00000900029F5DC08E0029802995A46007801
:10410000491C0291179990476D1CBAF10001AAF160
:10411000010AF1DC65E10000092801003031323389
:1041200034353637383961626364656600000000F3
:1041300030313233343536373839414243444546DD
:104140000000000000F058F90544761C3078002883
:104150007FF4ECAD19B02846BDE8F08F620700D4BB
:10416000062709F1070222F0070CFCE80223E146CA
:1041700003F000485FEA080C02D00FF2702C0DE04B
:104180005FEA045C02D50FF2682C07E05FEAC47CAA
:1041900002D00FF2602C01E0AFF2700C4FF0FF384C
:1041A00023F00043CDF850C065280CD006DC45282C
:1041B00009D046281DD047283DD13DE0662818D0BB
:1041C00067287ED138E00021112F01DB112000E0AB
:1041D000781CCDE9000106A90EA8FFF7EDFCDDE98A
:1041E0000F010E9A03910021009207F1010A049138
:1041F0004DE04FF000400097CDE9011006A90EA850
:10420000FFF7DAFCDDE90F0203920E9B1199002201
:10421000DDF80CA00093049211B9791C00EB010A9F
:10422000B7EB0A0004D4C0F1FF3007F1010A049093
:10423000AAEB0700019044E0012F00DA01270021DA
:10424000112F01DD112000E03846CDE9000106A95B
:104250000EA8FFF7B1FCDDE90F010E9A03910021D2
:1042600004910092BA4621070CD40399514500DA13
:104270008A46BAF1010F05DD009AAAF10101515CED
:10428000302908D0B84202DA10F1040F06DA012111
:10429000CDE9011015E0AAF10101E9E7002805DCEC
:1042A000049901440491AAEB000102E0411C51452C
:1042B00000DD8A460499401A401C01904FF00040EE
:1042C0000290200704D40198504501DBCDF804800A
:1042D00000208DF84F0002980DF14F07B0F1004F0C
:1042E00025D02B200E9002984FF0020800280CDAFF
:1042F000404202902D200E9007E00A210298FCF720
:1043000037FA3031029007F8011DB8F10001A8F129
:104310000108F2DC02980028EFD1791E0E9808708F
:10432000307800F0200040F0450007F8020D12A898
:10433000C01B00F107081498007800B1012000EBC1
:104340000A01019801EBE07105984144401A401EB2
:104350000590E00306D45B462146179A059800F0C5
:104360005DF805441498007818B15A46179990479B
:104370006D1CE00324D55B462146179A059800F092
:104380004DF805441CE00498002807DBDDE9030133
:10439000884203DD0098405C179901E017993020AE
:1043A0005A469047049805F10105401C0490019875
:1043B000401E019004D12E205A46179990476D1C3B
:1043C000BAF10001AAF1010ADDDC05E017F8010BE2
:1043D0005A46179990476D1CB8F10001A8F10108E1
:1043E000F4DC5B462146179A0598ABE62D000000E9
:1043F0002B000000200000002DE9F04104460025BC
:104400001E461746880404D405E039462020B047EC
:104410006D1C641EF9D52846BDE8F0812DE9F041F8
:10442000044600251E469046C80301D5302700E00B
:104430002027880404D505E041463846B0476D1C66
:10444000641EF9D52846BDE8F0810A68531C0B604C
:10445000107070472DE9FE4F07460E46002568464E
:1044600000F0FEFF00246FF00F0AE8464FF001094C
:1044700057F8240056F82410401A00D54042FCF7A3
:104480000DF95146FBF776FF58F8241011F0FF4F55
:104490000BD0FBF731FF4FF07E51FBF7F5FE0A49D9
:1044A00020F00040884205DC07E00849084408493C
:1044B000884202D309FA04F00543641C032CD7DBBD
:1044C0002846BDE8FE8F0000295C0F3E666666C187
:1044D0009A99D9002DE9F04D8D4F21F0004A86B010
:1044E00005460C46BA452ADBAAEB070028430AD04A
:1044F0008848824501DC1AD1CDB106B02846BDE816
:10450000F04DFFF730BB844A844B2846FBF7E5FFAC
:1045100007460E46824A834B28462146FBF7DDFFBD
:1045200006B03A463346BDE8F04DFBF72FBF0120F9
:10453000FFF73CFB06B0BDE8F04DFFF719BB7A482A
:10454000824542DABAF1795F0BDA2846FFF792FA30
:10455000042808BFFFF712FB284606B02146BDE835
:10456000F08D2A460B461046FBF7B7FF83460246FE
:104570006E480E460B4606217844FFF79FFA5A46CE
:104580003346FBF7AAFF804669488A465A463346B7
:1045900004217844FFF792FA5A463346FBF79DFF11
:1045A00000223B46FBF7F2FE02460B4640465146D0
:1045B000FCF705F82A462346FBF78FFF06B02A468C
:1045C0002346BDE8F04DFBF7E1BE284624F000414C
:1045D00000223D463B46FBF77DFF4FF0FF32FCF7E4
:1045E000C3F90646024653480F460B460621784457
:1045F000FFF764FA32463B46FBF76FFFCDE9000157
:104600004D4832463B4604217844FFF757FA32467C
:104610003B46FBF762FF00222B46FBF7B7FE8346C3
:1046200002913046394602F0E1F9804643480D4692
:10463000504517DCDDE900015A46029BFBF7BFFF3E
:1046400042462B46FBF749FF42462B46FBF79EFEB0
:104650000122FCF789F9304A304BFBF738FF304A2A
:10466000304B4CE04FF0000A52460B464046FBF7F9
:104670008DFECDE9031052462B4610461946FBF736
:104680002CFF32463B46FBF725FFDDE90332FBF703
:1046900096FF06460F46DDE900015A46029BFBF7EE
:1046A0008EFF83460091012230463946FCF75CF9C3
:1046B000194A1A4BFBF70EFF06460F4601224046E9
:1046C0002946FCF751F95A46009BFBF706FF324694
:1046D0003B46FBF7FCFE06460F46012250462946A4
:1046E000FCF742F90E4DDFF858802A464346FBF7A7
:1046F000F1FE32463B46FBF7EDFE2A464346FBF70A
:10470000E9FE002CD8BF81F0004106B0BDE8F08D75
:104710000000F03F0000F07F075C143326A6913CB8
:10472000182D4454FB21F93F0000E03F9435000070
:10473000AA3500001E350000343500003333EF3F4A
:10474000FB21E93F2DE9F84F04460D4621F00040DA
:1047500000917349814211DC7249884201DC06D123
:104760002CB120462946BDE8F84FFFF7FCB96E484A
:10477000002DCCBF6D496E49BDE8F88F6D4981426F
:1047800011DD6D498142D8BF4FF0FF366DDD204607
:104790002946FFF76FF9042808BFFFF7EFF9204615
:1047A0002946BDE8F88F6549654F25F000458142EF
:1047B00033DD6449814219DD002632464FF08043E3
:1047C00020462946FBF7E2FD80468A460122204624
:1047D0002946FCF7C9F800223B46FBF778FE424623
:1047E0005346FBF7ECFE04460D463EE00126002250
:1047F000BA463B4620462946FBF7C8FD80460F4691
:104800000022534620462946FBF761FE42463B46BE
:10481000FBF7D5FE04460D4627E04B4981421BDDE0
:10482000DFF828A102260022534620462946FBF73E
:1048300054FE00223B46FBF7A9FD80460F460022AE
:10484000534620462946FBF742FE42463B46FBF7CD
:10485000B6FE04460D4608E0032622462B460020FD
:104860003B49FBF7ACFE04460D4622462B4610465C
:104870001946FBF732FE8B46824602460B46FBF793
:104880002CFE07460246334888460B4606217844EC
:10489000FFF714F952465B46FBF71FFE82462E488F
:1048A0008B463A46434605217844FFF707F93A46D6
:1048B0004346FBF712FE02460B46002E5046594671
:1048C0000CDAFBF763FD22462B46FBF706FE01B030
:1048D00022462B46BDE8F04FFBF7FCBDFBF756FD2B
:1048E00022462B46FBF7F9FD1C4A7A4402EBC6032D
:1048F000D3E90023FBF7EBFD22462B46FBF7E7FD50
:10490000174A7A4402EBC603D3E90023FBF7E2FD22
:10491000009A002AB8BF81F00041BDE8F88F00007E
:10492000000010440000F07F182D4454FB21F93F93
:10493000FB21F9BF0000DC3F0000203E0000F33FF8
:104940000000F03F0000E63F008003400000F83F19
:104950000000F0BF36330000F43200009232000055
:104960005A3200002DE9F04D9446CCF1000423F0BA
:1049700000464CEA0404524F46EAD4749A468846EC
:1049800021F00042BC4206D8454240EA050442EA12
:10499000D474BC4204D9BDE8F04D6246FFF7E6B8D6
:1049A000AAF14055A5F17F6555EA0C040BD002240D
:1049B00004EAAA74434DDFF810E144EAD87452EADD
:1049C000000B04D00CE0BDE8F04DFFF7BBBE002C9F
:1049D00014BF012CBDE8F08D022C30D0032C32D056
:1049E00056EA0C0B0AD0BE4220D1BA4209D126F0B9
:1049F000804622F080423346114617E000291ADB38
:104A000025E0DFF8C8B0FB44002C04BFDBE900015F
:104A1000BDE8F08D012C02BFDBE9000181F000410F
:104A2000BDE8F08D022C0AD0032C0CD0BA4212D172
:104A3000B8F1000F0BDA23482549BDE8F08D284670
:104A40002449BDE8F08D28467146BDE8F08D1D482B
:104A50002149BDE8F08D921B12153C2AC4BF1948AC
:104A60001D490EDCBAF1000FBEBF12F13C0F002051
:104A7000014606DB6246FBF7A2FD21F00041FFF78D
:104A800061FE002C08BFBDE8F08D012C04BF81F051
:104A90000041BDE8F08D114A114B022C07D0FBF705
:104AA00016FD2A46BDE8F04D0A4BFBF710BDFBF79B
:104AB0000EFD2A46BDE8F04D064BFBF70BBD00008E
:104AC0000000F07F182D4454FB2109C0EE31000096
:104AD000FB21F9BFFB210940FB21F93F075C14339F
:104AE00026A6A13C70B51446FBF7CEFB084E054642
:104AF00021467068FBF7CEFB044629463068FBF779
:104B0000C9FB2146FBF76EFBBDE87040FBF7D4BD47
:104B10004000002008B560B120208DF8000028205A
:104B20008DF8010030208DF8020038208DF8030048
:104B300004E0A32204216846FBF735FB6A46042102
:104B400040F69E2001F0A4FE01F062FB08BD0000CB
:104B50003EB5044602208DF80000CA208DF8010001
:104B6000E3208DF8020009208DF803006A46042135
:104B7000682001F08DFEA3208DF80000610609D5A4
:104B8000C0218DF80110C8218DF80210C2218DF8C6
:104B9000031005E08DF801008DF802008DF8030088
:104BA00014F4C07F09D0C4218DF80410CC218DF8F5
:104BB0000510C6218DF8061005E08DF804008DF86B
:104BC00005008DF806008DF808008DF807008DF8B7
:104BD00009006A460A2140F6A72001F059FEA00705
:104BE0004FF0D80503D020208DF8000001E08DF8AB
:104BF00000506A46012140F6B62001F049FEA006A9
:104C000001D5012000E0002000F08EF814F4C07FF0
:104C10001ED0E0050AD5B2208DF800008B208DF85B
:104C20000100B6208DF802009B2009E0B0208DF82D
:104C3000000080208DF80100B4208DF80200902043
:104C40008DF803006A46042140F6A22001F020FE00
:104C5000E1074FF40B6022D0F8218DF800106A466E
:104C6000012101F015FEFA21072000F039FB072091
:104C700000F004FB012000F021FB642000F0C4FBE5
:104C80004FF4FA7000F0D0FBC821254800F0BEFABE
:104C9000282000F0D3FA0A2000F0E0FA05E08DF8B1
:104CA00000506A46012101F0F3FDA00703D5D92089
:104CB0008DF8000001E08DF800506A46012140F2B5
:104CC0003D7001F0E5FD600701D5012000E0002006
:104CD00000F048F8E00601D5012000E00020FFF7D1
:104CE00019FF104D44F00800688101F091FA00208E
:104CF000A873600601D50620A87314F4C07F02D003
:104D0000A87B801DA87314F0140F02D0A87B10306C
:104D1000A873A00702D0A87B001DA87300203EBD89
:104D200009E3CA02180500200EB54FF4976310B1CD
:104D300006A107C901E008A207CA8DE807006A4674
:104D40000921184601F0A4FD0EBD0000B8AAB38DDC
:104D5000B4980D355D000000B8AAAAAAB088C3C5F2
:104D6000C700000008B560B1C0208DF80000C22067
:104D70008DF80100C4208DF80200C6208DF80300D4
:104D800004E08B2204216846FBF70DFA6A460421F1
:104D900040F6982001F07CFD01F03AFA08BD0000D1
:104DA000C8234FF48062024940F6F63001F012B990
:104DB000FC6E00082DE9FF4F89B01746DDE9165259
:104DC00000244C4E884681462C80A246B07B694622
:104DD00001F0ACF94FF0FF3B18B158460DB0BDE8FB
:104DE000F08F708910F0140F3CD0009909BA21F0AF
:104DF000FF039DF803100B433B6001991B1409BA94
:104E000021F0FF029DF807105B430A437A60029984
:104E10009DF80B4009BA21F0FF012143B960039CC2
:104E2000091424BA24F0FF0C9DF80F4012144CEA28
:104E3000040CC7F80CC04FEA2C47494302FB02326E
:104E400007FB071111441024A1F17061B1F1007F3B
:104E500004D901F0DDF9A5F800A0BEE7298841F4E6
:104E6000807129804206694611D50A19A41D13884C
:104E70005BBAA8F8003053885BBAA8F80230928871
:104E800052BAA8F804202A8842F008022A8010F4B6
:104E9000C07F11D00A19A41D13885BBAA9F800308D
:104EA00053885BBAA9F80230928852BAA9F8042054
:104EB0002A8842F070022A80800716D00C44E078DD
:104EC00000F0C00500F03F016078C00706D0C808B8
:104ED00001F007013268491C02B190476078000771
:104EE00003D5716809B1A80988470C9800F0BEFD88
:104EF000002073E7180500202DE9FF41044603A8B0
:104F000000F01EFFBDF80C00410CC3032F480289BE
:104F100002F00300550754F8200000D54042C2F3C8
:104F2000C105960654F8255000D56D42C2F381168E
:104F3000D20554F8264000D56442A0FB0367C2178F
:104F400002FB037200FB0120820042EA9670A5FB7F
:104F50000367EA1702FB037205FB0122950045EA8D
:104F60009672A4FB0367E51705FB037304FB01318D
:104F70008B0043EA9671030E8DF80030030C8DF818
:104F80000130030A8DF802308DF80300100E8DF801
:104F90000400100C8DF80500100A8DF80600080EAC
:104FA0008DF80800080C8DF80900080A8DF80A0031
:104FB0008DF807208DF80B106A460C214FF42570F0
:104FC00001F066FC04B0BDE8F08100001805002087
:104FD00030B5044613A285B007CA8DE807004FF02C
:104FE000FF35C82C16D8C820B0FBF4F1491E080ABA
:104FF0008DF80C008DF80D1003AA022140F2162046
:1050000001F046FC30B96A460C2140F6C12001F09F
:105010003FFC10B1284605B030BD05488481002012
:10502000F9E70000FEF2ABC4AAF1DFDFBBAFDFDFC0
:1050300018050020F8B53049098901F0030250F83D
:1050400022404A0700D56442C1F3C1028B0650F8E2
:10505000222000D55242C1F3811350F82330C805F5
:1050600000D55B42254984FB0140850045EA9470E8
:1050700082FB0142A40F44EA820483FB0121950FC5
:1050800045EA8105010E8DF80010010C8DF8011024
:10509000010A8DF802108DF803006A4604214FF4CE
:1050A000747001F0F5FB4FF0FF3688B9200E8DF8D3
:1050B0000000200C8DF80100200A8DF802008DF808
:1050C00003406A4604214FF4757001F0E1FB08B11A
:1050D0003046F8BD280E8DF80000280C8DF8010030
:1050E000280A8DF802008DF803506A4604214FF417
:1050F000767001F0CDFBF8BD1805002009E3CA0267
:105100002DE9FF4104463CA004F00303006802902F
:105110003AA0006803903AA006683AA0056802A881
:10512000C15C8DF80010C4F3C101425C8DF8012010
:10513000C4F38112805C8DF8020003A8C35C8DF873
:105140000430415C8DF80510805C8DF806006A46DD
:10515000032140F2264001F09BFB4FF0FF37E0BBFC
:1051600001AA032140F22A4001F092FBA8BBCDE93D
:10517000006560070BD59DF8000040F001008DF838
:1051800000009DF8040040F001008DF80400A00626
:105190000BD59DF8010040F001008DF801009DF84D
:1051A000050040F001008DF80500E0050BD59DF8E5
:1051B000020040F001008DF802009DF8060040F06A
:1051C00001008DF806006A4603214FF4886001F063
:1051D0005FFB10B901AA032100E004E040F2314076
:1051E00001F056FB18B1384604B0BDE8F08106481E
:1051F00004810020F8E700004CCD6C000CC92C00A5
:105200003656760026466600180500204FF47A725E
:1052100090FBF2F008B54843010E8DF80010010C28
:105220008DF80110010A8DF802108DF803006A460E
:1052300004214FF4AE7001F02BFB08BD0521B0FB3B
:10524000F1F008B5010A8DF800108DF801006A46EA
:1052500002214FF4AD7001F01BFB08BD0521B0FB2E
:10526000F1F008B5010A8DF800108DF801006A46CA
:1052700002214FF4AC7001F00BFB08BD08B5002112
:105280008DF80010C10702D030218DF80010810781
:1052900005D59DF8001041F00C018DF80010400775
:1052A00005D59DF8000040F003008DF800006A4627
:1052B00001214FF4A47001F0EBFA08BD08B560B10C
:1052C000042800D90420401E8DF800006A46012100
:1052D00040F24F1001F0DCFA08BD0120F3E70000B6
:1052E0002DE9FC41054640074FF0FF367CD0B1F573
:1052F000C86F79D80846FBF7DAF93E49FAF7FCFFA0
:10530000074601A800F0FEFC9DF80400022806D024
:1053100004280DD008282ED0102865D134E00E21A5
:105320003846FBF727F8FBF7E0F984B2324907E08B
:105330000D213846FBF71EF8FBF7D7F92F4984B249
:105340003846FAF7A7FFFBF7D0F9210A8DF80010CD
:1053500080B28DF80140010A8DF802108DF803002B
:10536000E8076C4620D0224602214FF4EA7001F093
:105370008FFAC8BB11E00C213846FAF7FBFFFBF7A8
:10538000B4F984B21E49DBE70B213846FAF7F2FF85
:10539000FBF7ABF984B21B49D2E7A21C02214FF400
:1053A000927001F075FAF8B9A8070DD56A46022186
:1053B0004FF4EC7001F06CFAB0B9A21C02214FF46A
:1053C000947001F065FA78B9680710D56A46022131
:1053D0004FF4EE7001F05CFA30B9A21C02214FF4D8
:1053E000967001F055FA10B13046BDE8FC810020FE
:1053F000FBE7000000004843000040460000C045B5
:10540000000040450000C0440521B0FBF1F008B5A4
:10541000010A8DF800108DF801006A4602214FF450
:10542000EF7001F035FA08BD0521B0FBF1F008B5C9
:10543000010A8DF800108DF801006A4602214FF430
:10544000ED7001F025FA08BD13B54FF6FF73012288
:1054500069460248FCF7C8FF00981CBDB006002052
:105460002DE9FE430646264801AB042240680D2183
:105470000078FDF7D5FB10B10720BDE8FE839DF84D
:1054800004101C2000EAD1029DF80710DFF8749088
:10549000C1F301131A438DF800209DF80520C1F3D4
:1054A000810300EAD2021A438DF801209DF80620FC
:1054B00001F0030100EAD20008430024124F8DF8E6
:1054C0000200A0466D46285D10B146F824900AE01F
:1054D00046F824800DE000BF56F824003946FAF75C
:1054E000D9FE46F82400285D401E10F0FF00285524
:1054F000F2D1641CE4B2032CE5D30020BDE7000028
:10550000080000207B14AE3E1D5A843F2DE9FE4F5B
:1055100005460120C14E8DF800004FF000088DF8BF
:10552000018030680C461746817C70686B46022209
:105530000078FDF702FC4FF0FF3A00287AD1C8202E
:10554000FBF73CFB8DF8008030686B460122C17B85
:1055500070680078FDF7F1FB0028EFD130686B46EA
:105560000122417970680078FDF7E7FB0028E5D15A
:1055700030686B460122817C70680078FDF7DDFBA6
:105580000028DBD130686B460122C17D706800784D
:10559000FDF7D3FB0028D1D130686B460122017999
:1055A00070680078FDF7C9FB0028C7D14FF00C09DF
:1055B0008DF8009030686B460122017970680078A0
:1055C000FDF7BBFB002835D10F20FBF7F7FAB06AD7
:1055D0006B460122407A8DF800003068817870684F
:1055E0000078FDF7AAFB002824D1B06A6B4601229F
:1055F000007A8DF800003068417870680078FDF717
:105600009CFB002873D1B06A807A0FB140F0E000B3
:105610008DF8000030686B4601228179706800784F
:10562000FDF78BFB002862D12FB1B06AC07A40F041
:10563000E00001E04AE018208DF8000030686B4679
:105640000122C17970680078FDF777FBF0BB17B1D4
:10565000C820FBF7B3FA40208DF8000030686B4695
:105660000122017970680078FDF767FB70BB782034
:105670008DF8000030686B4601224179706800782F
:10568000FDF75BFB10BB3220FBF798FA8DF800802A
:10569000306847466B464179706801220078FDF713
:1056A0004CFB98B931687068B046897A00786B46CF
:1056B0000222FDF7B5FA48B9BDF80000AF6040BA64
:1056C000B0FBF9F06F60C6B22F6000E00FE0A7609A
:1056D00067602760002739E0D8F80010D8F8040088
:1056E0006B46C97A00780C22FDF79AFA10B1504641
:1056F000BDE8FE8FBDF80000236840BA02B2BDF8D5
:105700000200BDF804101A44226040BA626800B278
:105710001044606049BAA06809B20844A060BDF8AE
:1057200006002B6840BA02B2BDF808001A4440BA1D
:1057300001B2BDF80A002A606A6840BA1144696083
:10574000A96800B208447F1CFFB2A860B742C3D367
:1057500028688322C117090441EA1041000400238C
:10576000FAF7E0FC32460023FAF7DCFC28606868B0
:105770008322C117090441EA104100040023FAF70B
:10578000D1FC32460023FAF7CDFC6860A86883227A
:10579000C117090441EA104100040023FAF7C2FCD2
:1057A00032460023FAF7BEFCA86020684FF400657B
:1057B000C117090441EA104100042A460023FAF700
:1057C000B1FC32460023FAF7ADFC206060682A463F
:1057D000C117090441EA104100040023FAF7A2FCB2
:1057E00032460023FAF79EFC6060A0682A46C11783
:1057F000090441EA104100040023FAF793FC324601
:105800000023FAF78FFCA060002802DDA0F58030AD
:1058100001E000F58030A060002069E7080000206A
:105820002DE9F84F81462E488846002540686B4692
:10583000032200780D21FDF7F3F910B10720BDE830
:10584000F88F9DF80000002400F01F008DF8000084
:105850009DF801006FF00F0B00F01F008DF80100A4
:105860009DF802006E4600F01F008DF802004FF018
:10587000010A00BF59F8241058F82400081A00D56E
:105880004042FAF70BFF5946FAF774FD0746305DC0
:10589000C0B1144802E01449FAF7FCFC315D491E1E
:1058A00011F0FF013155F6D101463846FAF724FDD3
:1058B0004FF07E51FAF7E8FC0C4920F00040884296
:1058C00005DC07E00A483844B0F1D97F02D90AFA6A
:1058D00004F00543641C032CCCDB2846AFE7000032
:1058E000080000200000C84154E3853F295C0F3EBA
:1058F0000000E0BE00B5024600F00DF80346D01CE3
:1059000000F009F843EAC003901D00F004F843EAF0
:10591000801080B200BD90F90010002902DD4FF028
:105920000000704702DA4FF00400704790F9011050
:10593000002902DD4FF00100704702DA4FF0050048
:10594000704790F90200002802DD4FF00200704716
:1059500002DA4FF0060070474FF007007047000072
:105960001CB5FBF7D7FBFDF7DFFDFDF70FFAFDF7E1
:10597000C9FBFDF7BBFAFDF725FBFDF78DFBFDF736
:1059800095FAFDF755FBFDF7D9FB00212248FCF7FE
:105990007FFA0C212048FCF77BFA3C211F48FCF7DA
:1059A000C1F83C211E48FCF7BDF8FDF7E5FBFDF70B
:1059B000DFF800F055F901221A491B48FCF7B4FC46
:1059C000FDF71EFC1948FBF77DFF164CE41F002075
:1059D000FDF78AFC002116A20846E36AFDF7A4FC45
:1059E00017A200210120236BFDF79EFC2079009077
:1059F000E37817A200210220FDF796FC206AFAF74F
:105A000088FECDE9000116A200210320FDF78CFCE1
:105A1000FDF7ACFCDBE7000090050020D805002076
:105A2000680600204F000020F40600202006002019
:105A3000656E636F6465724C3A2025640000000057
:105A4000656E636F646572523A2025640000000041
:105A500043783A2025642C43793A202564000000DD
:105A600070697463683A2025660000007047000082
:105A70002DE9F041124C20F00101002594F824009A
:105A800010B10020BDE8F081A07A4FF0FF3668B178
:105A90000840277C2074884200D0354641B101205F
:105AA00000F078FF00F0B4FB38B127743046E9E726
:105AB000207D00B1012000F06DFF2846E2E70000E4
:105AC000080000202DE9F74F8EB00CA902A8CDE9FF
:105AD00000010BAB03AA09A907A8FFF76BF918B1DE
